:020000040000FA
:0620000043EF51F0120055
:0820080006ED10F0060067EF81
:062010004DF000D01200AB
:0120300000AF
:0720310000000000010000A7
:082038000000000000000000A0
:1020400011006EA40000EC010000050000006AA46D
:102050000000F10100000400000058A40000E00CA2
:1020600000001200000053A40000E701000005007A
:10207000000050A40000F5010000030000004FA480
:102080000000FB010000010000004EA40000FA0166
:1020900000000100000046A40000D8010000080074
:1020A000000031A40000A00100001500000017A4EA
:1020B0000000860100001A00000016A40000F901CB
:1020C000000001000000BCA30000600000005A00F6
:1020D000000038200000D00100000800000031207E
:1020E0000000E0010000070000009EA3000068015E
:1020F00000001E000000BEA20000000C0000E00076
:0E210000000030200000F80100000100000087
:02210E00D9CF27
:10211000E6FFE1CFD9FF020EE126760EDE6E010E5C
:10212000DD6E0101765102E1010E771901E185D0E2
:10213000010E761901E177516FE0800E761901E109
:1021400077515FE0400E761901E177514FE0200EA4
:10215000761901E1775140E0100E761901E17751CF
:1021600031E0080E761901E177511EE0040E761970
:1021700001E1775112E0020E761901E1775106E094
:10218000010E716F020E766F776B5DD0BEEC18F0AA
:10219000040E0101766F776B56D060EC1BF0080ED1
:1021A0000101766F776B4FD0E0D90101731772058B
:1021B00005E1080E766F776B726B03D0100E766FA9
:1021C000776B41D0DECFE6FFDDCFE6FF7ED8E5526C
:1021D000E5520101731737D0DECFE6FFDDCFE6FF12
:1021E00003D9E552E552010173172DD0DECFE6FF8A
:1021F000DDCFE6FF55EC17F0E552E552010173170C
:1022000022D073C1E6FFA0D9E5520101010E716F22
:10221000766F776B736F17D0900E741902E1010E11
:10222000751906E1020E766F776B746B756B04D0CF
:10223000742B000E752316D806D014D8080E010191
:10224000766F776B00D00101715101E16AD7020E00
:10225000E15C03E200D0E16AE552E16EE552E7CFCE
:10226000D9FF1200D9CFE6FFE1CFD9FFE652020E27
:10227000DF6E010171510CE1440EE66EB2EC1FF00D
:10228000E552DF6E020E146EDF50145CF5E006D0EE
:10229000010EE66EB2EC1FF0E552DF6EDF5006E194
:1022A000020EE66E4DEC41F0E55209D0DF0407E185
:1022B000E66A020EE66E86EC31F0E552E55200D099
:1022C000E552E552E7CFD9FF1200D9CFE6FFE1CFC3
:1022D000D9FF030EE126DF6A010EDB6AF36E020E00
:1022E000F3CFDBFF1CEC45F0DF6EDF5055E1E66A13
:1022F000020EE66EE8EC35F0E552E552E66A200E95
:10230000E66EB8EC4EF0E552E5520B0EE66E31EC9F
:1023100037F0E55202DAE76E010EE7CFDBFFDB5064
:1023200025E10101792B7951050816E2050E796F37
:10233000FD0EDBCFE9FFFE0EDBCFEAFF800EEE6E77
:10234000ED6A020EDB6A010EE66E090EE66E86ECA1
:1023500031F0E552E55209D0FD0EDBCFE9FFFE0E6C
:10236000DBCFEAFF100EEE6EED6A0BD0FD0EDBCF79
:10237000E9FFFE0EDBCFEAFF200EEE6EED6A0101F3
:10238000796B020EDBCF78F12FEC4EF04D0EE66E3E
:1023900031EC37F0E55219D00101785104E06F516A
:1023A00002E0705102E1000E01D0010EE76E020E54
:1023B000E7CFDBFF3AEC1DF0FD0EDBCFE9FFFE0EB1
:1023C000DBCFEAFF800EEE6EED6A020EDB50146E7C
:1023D000030EE15C03E200D0E16AE552E16E1450C5
:1023E000E552E7CFD9FF1200D9CFE6FFE1CFD9FF01
:1023F000090EE126DF6A010EDB6AF36E020EF3CFEF
:10240000DBFF030EDB6AD950040FE96EDACFEAFF77
:10241000EE6AEE6AEE6AD950030F146EDACF15F049
:10242000070E14C0DBFF080E15C0DBFF1CEC45F0E7
:10243000DF6EDF5065E1070EDBCFE6FF080EDBCF76
:10244000E6FFE66A090EE66E5CEC22F0E552E55224
:10245000E552E552040EDBCFE6FFE66A5FEC4FF093
:10246000E552E5524D0EE66E31EC37F0E552D7D825
:10247000E76E010EE7CFDBFFDB5002E1020EDB6A05
:10248000D880000E0101B555000EB655000EB755A7
:10249000000EB8551EE2B56BB66BB76BB86B010199
:1024A0007A2B7A5101080BE27A6BFD0EDBCFE9FF44
:1024B000FE0EDBCFEAFF400EEE6EED6A09D0FD0E98
:1024C000DBCFE9FFFE0EDBCFEAFF200EEE6EED6AFA
:1024D0000BD001017A6BFD0EDBCFE9FFFE0EDBCFE7
:1024E000EAFF400EEE6EED6A030EDBCFE6FFE66A12
:1024F0005FEC4FF0E552E552020EDBCF6FF115D0E5
:1025000001016F5102E0705102E1000E01D0010E95
:10251000E76E020EE7CFDBFFFD0EDBCFE9FFFE0E1D
:10252000DBCFEAFF800EEE6EED6A020EDB50146E1A
:10253000090EE15C03E200D0E16AE552E16E14505D
:10254000E552E7CFD9FF1200D9CFE6FFE1CFD9FF9F
:10255000FE0EDB5003E10101688502D001016895A0
:1025600000D0E552E7CFD9FF1200D9CFE6FFE1CF87
:10257000D9FF020EE126DF6ADE52010EDD6EC2ECEB
:102580002AF0DF6EDF5003E101017B6B02D0010115
:102590007B2B7B5101081EE2010E7B6F146EDF1452
:1025A000145C09E1010EDB6AE66E0B0EE66E86EC4A
:1025B00031F0E552E552020E146EDF14145C09E1AD
:1025C000010EDB6AE66E0C0EE66E86EC31F0E5522B
:1025D000E55216D0E66A0B0EE66E86EC31F0E55257
:1025E000E552E66A0C0EE66E86EC31F0E552E552F5
:1025F0000101715105E17B51000802E2010E726F89
:10260000010EDB50146E020EE15C03E200D0E16AC1
:10261000E552E16E1450E552E7CFD9FF1200D9CF51
:10262000E6FFE1CFD9FF050EE126010EDF6EDB6A82
:10263000020EDB6AD950030FE96EDACFEAFFEE6AC9
:10264000EE6A040EE66E82EC30F0E552F3CF69F1EB
:10265000F4CF6AF1010E8B108B6E020E8B108B6E15
:102660004D0EE66E31EC37F0E552040EE66E82EC6C
:1026700030F0E552F3CF6DF1F4CF6EF1050EE66E5A
:1026800082EC30F0E552F3CF6BF1F4CF6CF1E66AF7
:1026900085EC50F0E552F3CF14F0F4CF15F0D40EE2
:1026A000D8801456030E155614C0DBFF040E15C057
:1026B000DBFF010EE66E85EC50F0E552F3CF14F02F
:1026C000F4CF15F0D40ED8801456030E1556010E13
:1026D00014C0DBFF020E15C0DBFFFE0E8B148B6EE9
:1026E000FD0E8B148B6ED950010FE66E000EDA20B2
:1026F000E66E78D8E552E552DF162ED9DF16DF50A8
:10270000146E050EE15C03E200D0E16AE552E16E71
:102710001450E552E7CFD9FF1200D9CFE6FFE1CF41
:10272000D9FF050EE126010EDF6EDB6A020EDB6AC1
:10273000030EDB6A040EDB6AF36E030EF3CFDBFFDE
:10274000DBCF14F0060EE76E1418E8AE02D0143496
:1027500003D0E750D88014542EE3030EDBCFE6FFFE
:1027600082EC30F0E552DE52F3CFDEFFF4CFDDFF36
:10277000DD52010EDBCF14F0020EDBCF15F0270E79
:10278000D8801454000E15540CE2010EDBCF16F065
:10279000020EDBCF17F0FE0E165C000E175801E29A
:1027A00007D0DF6A010EDBCFC3F1020EDBCFC4F12D
:1027B000030EDB2AC5D7DF0407E1E66A090EE66EE1
:1027C00086EC31F0E552E552DF50146E050EE15C07
:1027D00003E200D0E16AE552E16E1450E552E7CF22
:1027E000D9FF1200D9CFE6FFE1CFD9FF030EE126D2
:1027F000010EDF6EDB6A020EDB6AE76EFD0EDBCFD9
:10280000E9FFFE0EDBCFEAFFE750E926000EEA22E1
:10281000EECF14F0EFCF15F0620ED8801454000EF6
:10282000155418E2020EE76EFD0EDBCFE9FFFE0E37
:10283000DBCFEAFFE750E926000EEA22EECF16F0E2
:10284000EFCF17F0860E165C010E175803E2010158
:102850007C6B05D001017C2B0101010EB56FFD0ED3
:10286000DBCFE9FFFE0EDBCFEAFFEECF14F0EFCFB8
:1028700015F0E60ED8801454010E155412E2FD0E28
:10288000DBCFE9FFFE0EDBCFEAFFEECF16F0EFCF96
:1028900017F06E0E165C030E175803E201017D6BF4
:1028A00005D001017D2B0101010EB66F01017C51A4
:1028B00001081CE2DF6A010E7C6F020EE76EFD0E5E
:1028C000DBCFE9FFFE0EDBCFEAFFE750E926000E83
:1028D000EA22EECFB9F1EDCFBAF1010EE66E050EA8
:1028E000E66E86EC31F0E552E55207D0E66A050E59
:1028F000E66E86EC31F0E552E55201017D510108AA
:1029000016E2DF6A010E7D6FFD0EDBCFE9FFFE0EE2
:10291000DBCFEAFFEECFBBF1EDCFBCF1010EE66EEF
:10292000060EE66E86EC31F0E552E55207D0E66A17
:10293000060EE66E86EC31F0E552E552DF50146E7D
:10294000030EE15C03E200D0E16AE552E16E14504F
:10295000E552E7CFD9FF1200D9CFE6FFE1CFD9FF8B
:10296000030EE126010EDF6EDB6A020EDB6A010157
:102970006B51695D6C516A590DE269516B5D146E62
:102980006C516A55156E010E14C0DBFF020E15C0A6
:10299000DBFF04D0010EDB6A020EDB6A010EDBCF27
:1029A00014F0020EDBCF15F01D0E145C000E15584E
:1029B00006E20101010EB76F01017E2B0CD034D865
:1029C000DF6EDF0403E101017E6B05D00101010E22
:1029D000B86F01017E2B7E51010811E2DF6A010E02
:1029E0007E6FDBCFBDF1020EDBCFBEF1010EE66ED6
:1029F000070EE66E86EC31F0E552E55207D0E66A46
:102A0000070EE66E86EC31F0E552E552DF50146EAB
:102A1000030EE15C03E200D0E16AE552E16E14507E
:102A2000E552E7CFD9FF1200D9CFE6FFE1CFD9FFBA
:102A3000050EE126010EDF6EDB6A020EDB6A030E75
:102A4000DB6A040EDB6A01016B516D5D6C516E59DE
:102A500020E26D516B5D146E6C516E55156E010E5A
:102A600014C0DBFF020E15C0DBFF040E146E156AE6
:102A70006DC108F06EC109F014C00DF015C00EF064
:102A80002DEC51F0030E08C0DBFF040E09C0DBFF84
:102A90001FD06B516D5D146E6E516C55156E010E2D
:102AA00014C0DBFF020E15C0DBFF040E146E156AA6
:102AB0006BC108F06CC109F014C00DF015C00EF028
:102AC0002DEC51F0030E08C0DBFF040E09C0DBFF44
:102AD000010EDBCF14F0020EDBCF15F0030EDBCFBF
:102AE00016F0040EDBCF17F01650145C1750155873
:102AF00001E201D0DF6ADF50146E050EE15C03E2F3
:102B000000D0E16AE552E16E1450E552E7CFD9FFFB
:102B10001200D9CFE6FFE1CFD9FF020EE126DE6A2F
:102B2000DD6AE66E400EE66EB8EC4EF0E552E55218
:102B3000010E8B108B6E020E8B108B6E4D0EE66E9F
:102B400031EC37F0E552040EE66E82EC30F0E552DF
:102B5000F3CFDEFFF4CFDDFFFE0E8B148B6EFD0E88
:102B60008B148B6E2FEC4EF04D0EE66E31EC37F081
:102B7000E552DECF14F0DDCF15F014C0F3FF15C021
:102B8000F4FF020EE15C03E200D0E16AE552E16E7F
:102B9000E552E7CFD9FF1200D9CFE6FFE1CFD9FF49
:102BA000020EE126DE6ADD6A010E8B108B6E020ECC
:102BB0008B108B6E4D0EE66E31EC37F0E552040E45
:102BC000E66E82EC30F0E552F3CFDEFFF4CFDDFFAE
:102BD000FE0E8B148B6EFD0E8B148B6EDECF14F0FD
:102BE000DDCF15F014C0F3FF15C0F4FF020EE15C59
:102BF00003E200D0E16AE552E16EE552E7CFD9FF8A
:102C00001200D9CFE6FFE1CFD9FF110EE126DF6A2E
:102C1000010EDB6A020EDB6A030EDB6A040EDB6A5E
:102C2000050EDB6A060EDB6A070EDB6A080EDB6A3E
:102C3000090EDB6A0A0EDB6A0B0EDB6A0C0EDB6A1E
:102C40000D0EDB6A0E0EDB6A0F0EDB6A100EDB6AFE
:102C50000A0EE66EE66A5DEC37F0E552E552040EC8
:102C6000E66E82EC30F0E552DE52F3CFDEFFF4CFB9
:102C7000DDFFDD52D950090FE66E000EDA20E66E58
:102C8000E66A130EE66E82EC21F0E552E552E5525B
:102C9000E552D9500B0FE66E000EDA20E66EE66ABA
:102CA000140EE66E82EC21F0E552E552E552E55253
:102CB000010E8B108B6E010EE66EE66A5DEC37F04E
:102CC000E552E552040EE66E82EC30F0E552030E5A
:102CD000F3CFDBFF040EF4CFDBFFFE0E8B148B6E05
:102CE0000A0EE66EE66A5DEC37F0E552E552020E3A
:102CF0008B108B6E010EE66EE66A5DEC37F0E552E6
:102D0000E552050EE66E82EC30F0E552050EF3CF8B
:102D1000DBFF060EF4CFDBFFFD0E8B148B6E0A0E6D
:102D2000E66EE66A5DEC37F0E552E552D950070FE2
:102D3000E66E000EDA20E66EE66A0F0EE66E82ECB4
:102D400021F0E552E552E552E552090EDBCF16F0CF
:102D50000A0EDBCF17F0010EDB501624146E020EA4
:102D6000DB501720156E0D0E14C0DBFF0E0E15C0C4
:102D7000DBFF0B0EDBCF16F00C0EDBCF17F0010ED6
:102D8000DB501624146E020EDB501720156E0F0E4A
:102D900014C0DBFF100E15C0DBFF030EDBCF14F0F9
:102DA000040EDBCF15F00D0EDBCF16F00E0EDBCFD1
:102DB00017F01450165C1550175815E2030EDBCFB0
:102DC00016F0040EDBCF17F00D0EDB50165C146E00
:102DD0000E0EDB501758156E030E14C0DBFF040EE9
:102DE00015C0DBFF04D0030EDB6A040EDB6A050EA0
:102DF000DBCF14F0060EDBCF15F00F0EDBCF16F095
:102E0000100EDBCF17F01450165C1550175815E252
:102E1000050EDBCF16F0060EDBCF17F00F0EDB50E2
:102E2000165C146E100EDB501758156E050E14C08C
:102E3000DBFF060E15C0DBFF04D0050EDB6A060EB5
:102E4000DB6A030EDBCF14F0040EDBCF15F0070EA8
:102E5000DBCF16F0080EDBCF17F01650145C1750BE
:102E6000155813E2050EDBCF18F0060EDBCF19F074
:102E7000070EDBCF1AF0080EDBCF1BF01A50185CE0
:102E80001B50195802E2DF6A02D0010EDF6EDF50DC
:102E9000146E110EE15C03E200D0E16AE552E16ECE
:102EA0001450E552E7CFD9FF1200D9CFE6FFE1CFAA
:102EB000D9FF050EE126010EDF6EDB6A020EDB6A2A
:102EC000030EDB6A040EDB6A0101715106E199DE33
:102ED000E76E020EE7CFDBFF06D01CEC45F0E76E95
:102EE000020EE7CFDBFFDB5001E09FD001018051F4
:102EF000020A54E0030A30E0010A0CE0DF6A806B4A
:102F0000FD0EDBCFE9FFFE0EDBCFEAFF800EEE6E9B
:102F1000ED6A88D0040EE66E82EC30F0E552F3CF15
:102F200014F0F4CF15F080C1E9FFEA6AE9BEEA685F
:102F3000D890E936EA36690EE926010EEA2214C075
:102F4000EEFF15C0EDFFE5DDF3CF81F1F4CF82F1A7
:102F50000101010E806F66D0040EE66E82EC30F047
:102F6000E552F3CF14F0F4CF15F080C1E9FFEA6A1F
:102F7000E9BEEA68D890E936EA36690EE926010E1C
:102F8000EA2214C0EEFF15C0EDFF06DEF3CF83F199
:102F9000F4CF84F10101020E806F44D0806B83C1B5
:102FA000E6FF84C1E6FF81C1E6FF82C1E6FF58D893
:102FB000E552E552E552E552E76E010EE7CFDBFF41
:102FC000DB5024E101017F2B7F51020815E2020E44
:102FD0007F6FFD0EDBCFE9FFFE0EDBCFEAFF800E39
:102FE000EE6EED6A010EE66E080EE66E86EC31F0CE
:102FF000E552E552DF6A09D0FD0EDBCFE9FFFE0E98
:10300000DBCFEAFF400EEE6EED6A0BD001017F6B65
:10301000FD0EDBCFE9FFFE0EDBCFEAFF800EEE6E8A
:10302000ED6A00D0DFCF70F10DD070C1DFFF01017C
:10303000806BFD0EDBCFE9FFFE0EDBCFEAFF800EDB
:10304000EE6EED6ADF50146E050EE15C03E200D017
:10305000E16AE552E16E1450E552E7CFD9FF120064
:10306000D9CFE6FFE1CFD9FF050EE126DE6ADD6AA2
:10307000020EDB6A030EDB6A040EDB6AFD0EDBCF99
:1030800014F0FE0EDBCF15F001011450695D1550F0
:103090006A5911E2FD0EDBCF08F0FE0EDBCF09F01E
:1030A0006951085C146E6A510958156E14C0DEFF30
:1030B00015C0DDFF02D0DE6ADD6AFB0EDBCF14F047
:1030C000FC0EDBCF15F014506B5D15506C5913E2FC
:1030D000FB0EDBCF08F0FC0EDBCF09F06B51085C78
:1030E000146E6C510958156E020E14C0DBFF030EEE
:1030F00015C0DBFF04D0020EDB6A030EDB6A020E92
:10310000DBCF14F0030EDBCF15F0DECF16F0DDCFF2
:1031100017F0010ED89016361736E806FBE114506A
:10312000165C155017580DE2010EF36E040EF3CF26
:10313000DBFFE66A080EE66E86EC31F0E552E552FA
:103140000AD0DECFBFF1DDCFC0F1020EDBCFC1F17F
:10315000030EDBCFC2F1040EDB50146E050EE15CF2
:1031600003E200D0E16AE552E16E1450E552E7CF88
:10317000D9FF12000101685100D01200D9CFE6FF3B
:10318000E1CFD9FF5A0EE126DF6A010EDB6AD95082
:10319000020FE96EDACFEAFFEE6AEE6AEE6AD95004
:1031A000010F146EDACF15F0050E14C0DBFF060E0A
:1031B00015C0DBFF070EDB6A080EDB6A010EF36E3B
:1031C000090EF3CFDBFF0A0EDB6A0B0EDB6A0C0E77
:1031D000DB6A0D0EDB6AD00EF36E0E0EF3CFDBFF53
:1031E000FD0EF36E0F0EF3CFDBFF410EF36E100EEC
:1031F000F3CFDBFF450EF36E110EF3CFDBFF200E96
:10320000F36E120EF3CFDBFFFE0EF36E130EF3CF51
:10321000DBFF420EF36E140EF3CFDBFF480EF36EAE
:10322000150EF3CFDBFF700EF36E160EF3CFDBFF40
:10323000FE0EF36E170EF3CFDBFF440EF36E180E87
:10324000F3CFDBFF4B0EF36E190EF3CFDBFFC00E97
:10325000F36E1A0EF3CFDBFFFE0EF36E1B0EF3CFF1
:10326000DBFF460EF36E1C0EF3CFDBFF4D0EF36E4D
:103270001D0EF3CFDBFF100EF36E1E0EF3CFDBFF40
:103280001F0EDB68490EF36E200EF3CFDBFF520EEC
:10329000F36E210EF3CFDBFF600EF36E220EF3CF41
:1032A000DBFF230EDB684D0EF36E240EF3CFDBFF46
:1032B000550EF36E250EF3CFDBFF900EF36E260E48
:1032C000F3CFDBFF270EDB684F0EF36E280EF3CF34
:1032D000DBFF570EF36E290EF3CFDBFFB00EF36E5C
:1032E0002A0EF3CFDBFF2B0EDB68510EF36E2C0E94
:1032F000F3CFDBFF590EF36E2D0EF3CFDBFFF00E95
:10330000F36E2E0EF3CFDBFF2F0EDB68550EF36E40
:10331000300EF3CFDBFF5B0EF36E310EF3CFDBFF2E
:10332000200EF36E320EF3CFDBFF330EDB6A5A0E44
:10333000F36E340EF3CFDBFF5E0EF36E350EF3CF7C
:10334000DBFF500EF36E360EF3CFDBFF370EDB6A7A
:103350005E0EF36E380EF3CFDBFF610EF36E390EA7
:10336000F3CFDBFF800EF36E3A0EF3CFDBFF020EDE
:10337000F36E3B0EF3CFDBFF640EF36E3C0EF3CF28
:10338000DBFF640EF36E3D0EF3CFDBFFC00EF36E7A
:103390003E0EF3CFDBFF020EF36E3F0EF3CFDBFFEB
:1033A000670EF36E400EF3CFDBFF650EF36E410E3A
:1033B000F3CFDBFFF00EF36E420EF3CFDBFF020E16
:1033C000F36E430EF3CFDBFF6A0EF36E440EF3CFC2
:1033D000DBFF680EF36E450EF3CFDBFF200EF36EBE
:1033E000460EF3CFDBFF030EF36E470EF3CFDBFF8A
:1033F0006D0EF36E480EF3CFDBFF6B0EF36E490ECE
:10340000F3CFDBFF500EF36E4A0EF3CFDBFF030E5C
:10341000F36E4B0EF3CFDBFF710EF36E4C0EF3CF5A
:10342000DBFF6D0EF36E4D0EF3CFDBFF800EF36E00
:103430004E0EF3CFDBFF030EF36E4F0EF3CFDBFF29
:10344000730EF36E500EF3CFDBFF6E0EF36E510E64
:10345000F3CFDBFFC00EF36E520EF3CFDBFF030E94
:10346000F36E530EF3CFDBFF760EF36E540EF3CFF5
:10347000DBFF720EF36E550EF3CFDBFF100EF36E13
:10348000560EF3CFDBFF040EF36E570EF3CFDBFFC8
:10349000760EF36E580EF3CFDBFF740EF36E590EFB
:1034A000F3CFDBFF010EE66EBBEC2CF0E552070E0E
:1034B000F3CFDBFF080EF4CFDBFFDF6A090EDB047E
:1034C00029E1130EDF5C26E2070EDBCF14F0080EB5
:1034D000DBCF15F0D9500E0F186EDACF19F0DF5090
:1034E000040D1850F324E96E1950F420EA6EEECF63
:1034F00016F0EFCF17F015501718E8AE02D01734BA
:1035000004D01650145C1750155802E2090EDB6AFD
:10351000DF2AD4D7DF04DF6E050EDBCFE6FF060E11
:10352000DBCFE6FFE66A090EE66E5CEC22F0E552C0
:10353000E552E552E552D9500E0F186EDACF19F068
:10354000DF50040D1850F324E96E1950F420EA6E90
:10355000020EE926000EEA22EF50166E176A030EDD
:10356000DB50146E156A14C008F015C009F016C0BF
:103570000DF017C00EF0D6EC47F00A0E06C0DBFFC8
:103580000B0E07C0DBFF0A0EDBCF14F00B0EDBCFF8
:1035900015F0640E0D6E0E6A14C008F015C009F027
:1035A0002DEC51F008C014F009C015F0FF0ED880C2
:1035B0001454000E155401E212D0640E146E156AF4
:1035C0000A0EDBCF08F00B0EDBCF09F014C00DF0B4
:1035D00015C00EF02DEC51F0030E08C0DBFFD950E2
:1035E0000E0F186EDACF19F0DF50040D1850F324C7
:1035F000E96E1950F420EA6E030EE926000EEA2265
:10360000EF50166E176A040EDB50146E156A14C064
:1036100008F015C009F016C00DF017C00EF0D6EC7A
:1036200047F00C0E06C0DBFF0D0E07C0DBFF0C0ED3
:10363000DBCF14F00D0EDBCF15F0640E0D6E0E6AAD
:1036400014C008F015C009F02DEC51F008C014F0BA
:1036500009C015F0FF0ED8801454000E155401E275
:1036600012D0640E146E156A0C0EDBCF08F00D0E2E
:10367000DBCF09F014C00DF015C00EF02DEC51F0A9
:10368000040E08C0DBFF030EDBCFE6FF020EE66E82
:103690005FEC4FF0E552E552040EDBCFE6FF030E80
:1036A000E66E5FEC4FF0E552E5525A0EE15C03E244
:1036B00000D0E16AE552E16EE552E7CFD9FF120092
:1036C000D9CFE6FFE1CFD9FF0D0EE126DE6ADD6A34
:1036D000020EDB6A030EDB6A040EDB6A050EDB6A90
:1036E000060EDB6A070EDB6A080EDB6A090EDB6A70
:1036F0000A0EDB6A0B0EDB6A0C0EDB6AD9CFE6FF23
:10370000DACFE6FFE66A1B0EE66E82EC21F0E552A8
:10371000E552E552E552D950020FE66E000EDA206E
:10372000E66EE66A150EE66E82EC21F0E552E55291
:10373000E552E552D950060FE66E000EDA20E66E2D
:10374000E66A130EE66E82EC21F0E552E552E55290
:10375000E552D950080FE66E000EDA20E66EE66AF2
:10376000140EE66E82EC21F0E552E552E552E55288
:10377000DECF16F0DDCF17F0020EDB50165C146EB4
:10378000030EDB501758156E040E14C0DBFF050E38
:1037900015C0DBFFD950040FE96EDACFEAFF600EE7
:1037A000D880EE54000EED5467E2010EE66EBBECDD
:1037B0002CF0E5520B0EF3CFDBFF0C0EF4CFDBFF4A
:1037C0000B0EDBCF14F00C0EDBCF15F0D89015509C
:1037D00004E6800E145C020E15584DE20B0EDBCF92
:1037E00016F00C0EDBCF17F0173404E21650500819
:1037F000000E175440E2080EDBCFE6FF090EDBCFC8
:10380000E6FF060EDBCFE6FF070EDBCFE6FF52D862
:10381000E552E552E552E552E76E0A0EE7CFDBFFCF
:10382000DB040EE1DECFE6FFDDCFE6FFE66A150E34
:10383000E66E0FEC24F0E552E552E552E5521BD05E
:10384000D950040FE96EDACFEAFF900ED880EE541B
:10385000000EED5410E20101855106080BE2DA0E6C
:10386000F36E060EF3CFDBFF020EF36E070EF3CFFF
:10387000DBFF01D0852B02D00101856B080EDBCF69
:10388000E6FF090EDBCFE6FF060EDBCFE6FF070EF5
:10389000DBCFE6FFAAD8E552E552E552E5520D0E20
:1038A000E15C03E200D0E16AE552E16EE552E7CF68
:1038B000D9FF1200D9CFE6FFE1CFD9FF0A0EE126EA
:1038C000DF6A010EDB6A020EDB6A030EDB6A040E9E
:1038D000DB6A050EDB6AFD0EDBCF08F0FE0EDBCFE8
:1038E00009F0060E08C0DBFF070E09C0DBFFFB0E68
:1038F000DBCF08F0FC0EDBCF09F0080E08C0DBFFC1
:10390000090E09C0DBFF1CEC45F0DF6EDF505EE105
:10391000010EE66E20EC45F0E552020EF3CFDBFF20
:10392000030EF4CFDBFFE66A20EC45F0E552040E0F
:10393000F3CFDBFF050EF4CFDBFFD950020FE96EAA
:10394000DACFEAFF070ED880EE54000EED5418E2ED
:10395000D950060FE96EDACFEAFF070EEE26000E09
:10396000ED22060EDBCFE6FF070EDBCFE6FFE66AB1
:10397000130EE66E0FEC24F0E552E552E552E552E7
:10398000D950040FE96EDACFEAFF070ED880EE5463
:10399000000EED5418E2D950080FE96EDACFEAFFB5
:1039A000070EEE26000EED22080EDBCFE6FF090E15
:1039B000DBCFE6FFE66A140EE66E0FEC24F0E5526C
:1039C000E552E552E552DE52010EDD6E010EDB508E
:1039D000146E0A0EE15C03E200D0E16AE552E16E8A
:1039E0001450E552E7CFD9FF1200D9CFE6FFE1CF5F
:1039F000D9FFE652DF6AD950FD0FE96EFF0EDA20DB
:103A0000EA6ED90ED880EE54020EED540CE3D95074
:103A1000FB0FE96EFF0EDA20EA6ED90ED880EE5465
:103A2000020EED5403E2020EDF6E1BD0D950FD0FE3
:103A3000E96EFF0EDA20EA6EE60ED880EE54010E33
:103A4000ED540CE3D950FB0FE96EFF0EDA20EA6E5D
:103A5000E60ED880EE54010EED5403E2010EDF6E47
:103A600000D0DF500101681300D0E552E552E7CFE6
:103A7000D9FF1200D9CFE6FFE1CFD9FF050EE1262D
:103A8000DF6A010EDB6A020EDB6A030EDB6A040EDC
:103A9000DB6A010EE66E20EC45F0E552DE52F3CF14
:103AA000DEFFF4CFDDFFDD52E66A20EC45F0E552A3
:103AB000030EF3CFDBFF040EF4CFDBFFD950010F71
:103AC000E96EDACFEAFFE60ED880EE54010EED542F
:103AD0000BE3D950030FE96EDACFEAFFE60ED88088
:103AE000EE54010EED5419E2020EE66EA4EC36F02F
:103AF000E552DF6EDF5009E1010EE66E020EE66E62
:103B0000E8EC35F0E552E55207D0030E146EDF50B5
:103B1000145C02E10101688107D0E66A020EE66EDC
:103B2000E8EC35F0E552E552050EE15C03E200D029
:103B3000E16AE552E16EE552E7CFD9FF1200D9CF35
:103B4000E6FFE1CFD9FFFD0EDBCFE9FFFE0EDBCFB5
:103B5000EAFFB9C1EEFFBAC1EDFFFD0EDBCFE9FF11
:103B6000FE0EDBCFEAFF020EE926000EEA22BBC101
:103B7000EEFFBCC1EDFFFD0EDBCFE9FFFE0EDBCF9C
:103B8000EAFF040EE926000EEA22BDC1EEFFBEC127
:103B9000EDFFFD0EDBCFE9FFFE0EDBCFEAFF060EE9
:103BA000E926000EEA22BFC1EEFFC0C1EDFFFD0E07
:103BB000DBCFE9FFFE0EDBCFEAFF080EE926000EA1
:103BC000EA22C1C1EEFFC2C1EDFFFD0EDBCFE9FF6E
:103BD000FE0EDBCFEAFF0A0EE926000EEA22C3C181
:103BE000EEFFC4C1EDFFFD0EDBCFE9FFFE0EDBCF24
:103BF000EAFF0C0EE926000EEA2271C1EFFF00D0A9
:083C0000E552E7CFD9FF1200E5
:083C0800010EE66E0FEC4EF018
:103C1000E5520101866BE66A460EE66EBA0EE66E66
:103C2000000EE66E0FD8E552E552E552E55201016D
:103C3000876B886BF00E896F8A6B8B6B460E8C6F6F
:103C400000D01200D9CFE6FFE1CFD9FFE652DF6AFC
:103C5000DF6AFC0EDB50DF5C11E2DF50E76EFD0E29
:103C6000DBCFE9FFFE0EDBCFEAFFE750E926000ECF
:103C7000EA22FB0EDBCFEFFFDF2AEBD700D0E552C5
:103C8000E552E7CFD9FF1200D9CFE6FFE1CFD9FF48
:103C9000030EE126DE6ADD6A020EDB6AFD0EDBCF73
:103CA000DEFFDBCFDDFFDECFF6FFDDCFF7FF080065
:103CB000020EF5CFDBFFDB50146E030EE15C03E276
:103CC00000D0E16AE552E16E1450E552E7CFD9FF2A
:103CD0001200D9CFE6FFE1CFD9FF050EE126DF6A5A
:103CE000010EDB6A020EDB6A030EDB6A040EDB6A7E
:103CF000FA0EDBCF14F0FB0EDBCF15F0FC0EDBCFA2
:103D000016F0FD0EDBCF17F0180ED89017321632D2
:103D100015321432E806F9E1FE0EDBCF18F0196A0D
:103D20001A6A1B6A1850141A1950151A1A50161AC2
:103D30001B50171A1450DF6E186819681A681B6A2E
:103D4000D950FA0FE96EFF0EDA20EA6EEE5018161F
:103D5000EE501916EE501A16EE501B16080E1F0BD9
:103D600007E0D890183619361A361B36E806F9E1FE
:103D7000DF50040DF3CFF6FFF4CFF7FF640EF62605
:103D8000750EF72218500900F518146E1950090025
:103D9000F518156E1A500900F518166E1B5009001B
:103DA000F518176E010E14C0DBFF020E15C0DBFF05
:103DB000030E16C0DBFF040E17C0DBFF010EDBCFC6
:103DC00014F0020EDBCF15F0030EDBCF16F0040E5D
:103DD000DBCF17F014C006F015C007F016C008F0CE
:103DE00017C009F0050EE15C03E200D0E16AE5527C
:103DF000E16EE552E7CFD9FF1200D9CFE6FFE1CF60
:103E0000D9FF060EE126DF6A010EDB6A020EF36EB1
:103E1000F3CFDBFFFE0EDB50E76E030EE7CFDBFFD9
:103E2000D950040FE96EDACFEAFF8D0EEE6E010E67
:103E3000ED6E01019851991118E1966B200E976F64
:103E4000986BD00E996F9269936994699569040E85
:103E5000DBCFE6FF050EDBCFE6FFE66A010EE66E7E
:103E60002BDBE552E552E552E552030EDB50146EB2
:103E7000156A01011450985D1550995903E2030E1B
:103E800098C1DBFF030EDB505EE0DF6A030EDB5000
:103E9000DF5C28E296C1E6FF97C1E6FFF5DEE5525A
:103EA000E552E76E010EE7CFDBFF92C1E6FF93C15B
:103EB000E6FF94C1E6FF95C1E6FFDBCFE6FF09DF31
:103EC000146E050EE15E145006C092F107C093F126
:103ED00008C094F109C095F10101962B000E9723BB
:103EE000DF2AD4D7030EDB50146E156A1450985D88
:103EF000986F15509959996F9851991124E1921F13
:103F0000931F941F951F920EE96E010EEA6EEE50FC
:103F10008D1909E1EE508E1906E1EE508F1903E17B
:103F2000EE50901900E102E1916B06D0912B915176
:103F3000010802E2020EDB6A966B200E976F92690F
:103F4000936994699569020EDB50146E060EE15C6C
:103F500003E200D0E16AE552E16E1450E552E7CF8A
:103F6000D9FF1200D9CFE6FFE1CFD9FF0E0EE1262F
:103F7000DF6A010EDB6A020EDB6A030EDB6A040EE7
:103F8000DB6A020EF36E050EF3CFDBFF060EDB6A73
:103F9000070EDB6A080EDB6A090EDB6AD950010FD7
:103FA000146EDACF15F00A0E14C0DBFF0B0E15C02D
:103FB000DBFFD950060F146EDACF15F00C0E14C0CB
:103FC000DBFF0D0E15C0DBFFFE0EDB50DF5C01E3F7
:103FD0007AD00A0EDBCFE6FF0B0EDBCFE6FF0C0E2E
:103FE00001019F5DE840E8403F0BE66E120EE66E71
:103FF00063DAE552E552E552E552040E01019F27CE
:104000009BC1E6FF9CC1E6FF9DC1E6FF9EC1E6FFA6
:10401000010EDBCFE6FF5DDE146E050EE15E14508F
:1040200006C09BF107C09CF108C09DF109C09EF13C
:104030009BC1E6FF9CC1E6FF9DC1E6FF9EC1E6FF76
:10404000020EDBCFE6FF45DE146E050EE15E145076
:1040500006C09BF107C09CF108C09DF109C09EF10C
:104060009BC1E6FF9CC1E6FF9DC1E6FF9EC1E6FF46
:10407000030EDBCFE6FF2DDE146E050EE15E14505D
:1040800006C09BF107C09CF108C09DF109C09EF1DC
:104090009BC1E6FF9CC1E6FF9DC1E6FF9EC1E6FF16
:1040A000040EDBCFE6FF15DE146E050EE15E145044
:1040B00006C09BF107C09CF108C09DF109C09EF1AC
:1040C000040EDF2681D701019F514F0849E29B1F53
:1040D0009C1F9D1F9E1F0C0EDBCFE6FF0D0EDBCF3E
:1040E000E6FFE66AE66AE8D9E552E552E552E552AE
:1040F000D950060FE96EDACFEAFF01019B51EE18A5
:1041000009E19C51EE1806E19D51EE1803E19E5124
:10411000EE1800E107E1010EF36E050EF3CFDBFFB1
:104120009A6B17D09A2B9A51020802E2050EDB6AAD
:104130009BC1E6FF9CC1E6FF9DC1E6FF9EC1E6FF75
:10414000E66A1C0EE66E05EC25F0146E060EE15EC6
:10415000145001010C0E9F6F9B699C699D699E69BB
:10416000050EDB50146E0E0EE15C03E200D0E16A36
:10417000E552E16E1450E552E7CFD9FF1200D9CFD6
:10418000E6FFE1CFD9FF020EE126DE6ADD6AFE0E10
:10419000DBCF14F01E0EE76E1418E8AE02D0E73441
:1041A00002D0E750145C64E2FE0EDBCFF6FFF76A44
:1041B000F6BEF768050EF702F3CFF7FFF602F3CF6E
:1041C000F6FFF450F726CE0EF626740EF7220800FE
:1041D000F550F36EFE0EDB50F35C4AE1D950FB0F55
:1041E000E96EFF0EDA20EA6EEE50ED1041E0FE0EB1
:1041F000DBCFF6FFF76AF6BEF768050EF702F3CFDE
:10420000F7FFF602F3CFF6FFF450F726CE0EF626B0
:10421000740EF722030EF626000EF7220800F55062
:10422000156E166A010E151802E1000E161820E12F
:10423000FE0EDBCFF6FFF76AF6BEF768050EF70253
:10424000F3CFF7FFF602F3CFF6FFF450F726CE0ECA
:10425000F626740EF722040EF626000EF72208004A
:10426000F550F36EFD0EDBCFF4FFF350F45C01E389
:104270003ED0FE0EDBCFF6FFF76AF6BEF768050EFE
:10428000F702F3CFF7FFF602F3CFF6FFF450F7266D
:10429000CE0EF626740EF722F62A000EF72209003B
:1042A000F5CF16F00800F5CF17F0FF0E16163F0EEB
:1042B0001716FD0EDB5000011624146E000E172099
:1042C000156E14C0DEFF15C0DDFFFB0EDBCFE6FF71
:1042D000FC0EDBCFE6FF010EE66EDECFE6FFDDCFA4
:1042E000E6FF1CEC27F0146E050EE15E1450020E82
:1042F000E15C03E200D0E16AE552E16EE552E7CF0E
:10430000D9FF1200D9CFE6FFE1CFD9FF040EE12695
:10431000DE6ADD6AFB0EDBCF08F0FC0EDBCF09F0B6
:10432000020E08C0DBFF030E09C0DBFFFE0EDBCF71
:1043300014F01E0EE76E1418E8AE02D0E73402D077
:10434000E750145C64E2FE0EDBCFF6FFF76AF6BEC0
:10435000F768050EF702F3CFF7FFF602F3CFF6FF8B
:10436000F450F726CE0EF626740EF7220800F5500C
:10437000F36EFE0EDB50F35C4AE1D950FB0FE96EA1
:10438000FF0EDA20EA6EEE50ED1041E0FE0EDBCFBC
:10439000F6FFF76AF6BEF768050EF702F3CFF7FFF0
:1043A000F602F3CFF6FFF450F726CE0EF626740E83
:1043B000F722030EF626000EF7220800F550156EC0
:1043C000166A020E151802E1000E161820E1FE0E04
:1043D000DBCFF6FFF76AF6BEF768050EF702F3CFFC
:1043E000F7FFF602F3CFF6FFF450F726CE0EF626CF
:1043F000740EF722040EF626000EF7220800F55080
:10440000F36EFD0EDBCFF4FFF350F45C01E349D013
:10441000FE0EDBCFF6FFF76AF6BEF768050EF70271
:10442000F3CFF7FFF602F3CFF6FFF450F726CE0EE8
:10443000F626740EF722F62A000EF7220900F5CFB1
:1044400016F00800F5CF17F0FF0E16163F0E1716E0
:10445000FD0EDB50186E196A020E086E096A18C04C
:104460000DF019C00EF0D6EC47F016500624146E6D
:1044700017500720156E14C0DEFF15C0DDFF020EB9
:10448000DBCFE6FF030EDBCFE6FF020EE66EDECFEC
:10449000E6FFDDCFE6FF1CEC27F0146E050EE15EB3
:1044A0001450040EE15C03E200D0E16AE552E16ED3
:1044B000E552E7CFD9FF1200D9CFE6FFE1CFD9FF10
:1044C000040EE126DE6ADD6AFB0EDBCF08F0FC0E8F
:1044D000DBCF09F0020E08C0DBFF030E09C0DBFFD3
:1044E000FE0EDBCF14F01E0EE76E1418E8AE02D0FD
:1044F000E73402D0E750145C64E2FE0EDBCFF6FF37
:10450000F76AF6BEF768050EF702F3CFF7FFF6027B
:10451000F3CFF6FFF450F726CE0EF626740EF722F0
:104520000800F550F36EFE0EDB50F35C4AE1D95003
:10453000FB0FE96EFF0EDA20EA6EEE50ED1041E05F
:10454000FE0EDBCFF6FFF76AF6BEF768050EF70240
:10455000F3CFF7FFF602F3CFF6FFF450F726CE0EB7
:10456000F626740EF722030EF626000EF722080038
:10457000F550156E166A040E151802E1000E161895
:1045800020E1FE0EDBCFF6FFF76AF6BEF768050EF8
:10459000F702F3CFF7FFF602F3CFF6FFF450F7265A
:1045A000CE0EF626740EF722040EF626000EF72223
:1045B0000800F550F36EFD0EDBCFF4FFF350F45C12
:1045C00001E349D0FE0EDBCFF6FFF76AF6BEF768CF
:1045D000050EF702F3CFF7FFF602F3CFF6FFF45024
:1045E000F726CE0EF626740EF722F62A000EF722D4
:1045F0000900F5CF16F00800F5CF17F0FF0E1616DC
:104600003F0E1716FD0EDB50186E196A040E086E69
:10461000096A18C00DF019C00EF0D6EC47F016501C
:104620000624146E17500720156E14C0DEFF15C047
:10463000DDFF020EDBCFE6FF030EDBCFE6FF040E4D
:10464000E66EDECFE6FFDDCFE6FF1CEC27F0146E52
:10465000050EE15E1450040EE15C03E200D0E16A55
:10466000E552E16EE552E7CFD9FF1200D9CFE6FF60
:10467000E1CFD9FF040EE126DE6ADD6AFB0EDBCF57
:1046800008F0FC0EDBCF09F0020E08C0DBFF030EC2
:1046900009C0DBFFFE0EDBCF14F01E0EE76E141810
:1046A000E8AE02D0E73402D0E750145C64E2FE0EBC
:1046B000DBCFF6FFF76AF6BEF768050EF702F3CF19
:1046C000F7FFF602F3CFF6FFF450F726CE0EF626EC
:1046D000740EF7220800F550F36EFE0EDB50F35C0B
:1046E0004AE1D950FB0FE96EFF0EDA20EA6EEE5078
:1046F000ED1041E0FE0EDBCFF6FFF76AF6BEF7687D
:10470000050EF702F3CFF7FFF602F3CFF6FFF450F2
:10471000F726CE0EF626740EF722030EF626000EAE
:10472000F7220800F550156E166A200E151802E1E2
:10473000000E161820E1FE0EDBCFF6FFF76AF6BE7C
:10474000F768050EF702F3CFF7FFF602F3CFF6FF97
:10475000F450F726CE0EF626740EF722040EF62637
:10476000000EF7220800F550F36EFD0EDBCFF4FFCC
:10477000F350F45C01E348D0FE0EDBCFF6FFF76A9E
:10478000F6BEF768050EF702F3CFF7FFF602F3CF98
:10479000F6FFF450F726CE0EF626740EF722F62A10
:1047A000000EF7220900F5CF16F00800F5CF17F03C
:1047B000FF0E16163F0E1716FD0EDB50186E196A07
:1047C000200E086E096A18C00DF019C00EF0D6EC64
:1047D00047F016500624146E17500720156E14C0AB
:1047E000DEFF15C0DDFF020EDBCFE6FF030EDBCFE1
:1047F000E6FF200EE66EDECFE6FFDDCFE6FF1CDB38
:10480000146E050EE15E1450040EE15C03E200D06C
:10481000E16AE552E16EE552E7CFD9FF1200D9CF48
:10482000E6FFE1CFD9FF040EE126DE6ADD6AD9504A
:10483000FB0F146EFF0EDA20156E020E14C0DBFFA4
:10484000030E15C0DBFFFE0EDBCF14F01E0EE76E6D
:104850001418E8AE02D0E73402D0E750145C75E2D9
:10486000FE0EDBCFF6FFF76AF6BEF768050EF7021D
:10487000F3CFF7FFF602F3CFF6FFF450F726CE0E94
:10488000F626740EF7220800F550F36EFE0EDB508C
:10489000F35C5BE1FE0EDBCFF6FFF76AF6BEF7686E
:1048A000050EF702F3CFF7FFF602F3CFF6FFF45051
:1048B000F726CE0EF626740EF722040EF626000E0C
:1048C000F7220800F550F36EFD0EDBCFF4FFF35036
:1048D000F45C3BE2FE0EDBCFF6FFF76AF6BEF7684C
:1048E000050EF702F3CFF7FFF602F3CFF6FFF45011
:1048F000F726CE0EF626740EF722030EF626000ECD
:10490000F7220800F550156E166A020E151802E11E
:10491000000E16181AE1FE0EDBCFF6FFF76AF6BEA0
:10492000F768050EF702F3CFF7FFF602F3CFF6FFB5
:10493000F450F726CE0EF626740EF722F62A000E55
:10494000F7220B00F550800B01E054D0D950FB0F3B
:10495000146EFF0EDA20156E020E14C0DBFF030E7C
:1049600015C0DBFFFE0EDBCFF6FFF76AF6BEF76879
:10497000050EF702F3CFF7FFF602F3CFF6FFF45080
:10498000F726CE0EF626740EF722F62A000EF72230
:104990000900F5CF16F00800F5CF17F0FF0E161638
:1049A0003F0E1716FD0EDB50186E196A020E086EC8
:1049B000096A18C00DF019C00EF0D6EC47F0165079
:1049C0000624146E17500720156E14C0DEFF15C0A4
:1049D000DDFF020EDBCFE6FF030EDBCFE6FF020EAC
:1049E000E66EDECFE6FFDDCFE6FF8ADA146E050E57
:1049F000E15E1450040EE15C03E200D0E16AE5528E
:104A0000E16EE552E7CFD9FF1200D9CFE6FFE1CF43
:104A1000D9FF040EE126DE6ADD6AD950F90F146E63
:104A2000FF0EDA20156E020E14C0DBFF030E15C058
:104A3000DBFFFE0EDBCF14F01E0EE76E1418E8AE9F
:104A400002D0E73402D0E750145C75E2FE0EDBCFF3
:104A5000F6FFF76AF6BEF768050EF702F3CFF7FF29
:104A6000F602F3CFF6FFF450F726CE0EF626740EBC
:104A7000F7220800F550F36EFE0EDB50F35C5BE1AD
:104A8000FE0EDBCFF6FFF76AF6BEF768050EF702FB
:104A9000F3CFF7FFF602F3CFF6FFF450F726CE0E72
:104AA000F626740EF722040EF626000EF7220800F2
:104AB000F550F36EFD0EDBCFF4FFF350F45C3BE2F8
:104AC000FE0EDBCFF6FFF76AF6BEF768050EF702BB
:104AD000F3CFF7FFF602F3CFF6FFF450F726CE0E32
:104AE000F626740EF722030EF626000EF7220800B3
:104AF000F550156E166A040E151802E1000E161810
:104B00001AE1FE0EDBCFF6FFF76AF6BEF768050E78
:104B1000F702F3CFF7FFF602F3CFF6FFF450F726D4
:104B2000CE0EF626740EF722F62A000EF7220B00A0
:104B3000F550800B01E054D0D950F90F146EFF0EE0
:104B4000DA20156E020E14C0DBFF030E15C0DBFF6A
:104B5000FE0EDBCFF6FFF76AF6BEF768050EF7022A
:104B6000F3CFF7FFF602F3CFF6FFF450F726CE0EA1
:104B7000F626740EF722F62A000EF7220900F5CF6A
:104B800016F00800F5CF17F0FF0E16163F0E171699
:104B9000FD0EDB50186E196A040E086E096A18C003
:104BA0000DF019C00EF0D6EC47F016500624146E26
:104BB00017500720156E14C0DEFF15C0DDFF020E72
:104BC000DBCFE6FF030EDBCFE6FF040EE66EDECFA3
:104BD000E6FFDDCFE6FF94D9146E050EE15E1450BA
:104BE000FE0EDBCFF6FFF76AF6BEF768050EF7029A
:104BF000F3CFF7FFF602F3CFF6FFF450F726CE0E11
:104C0000F626740EF722F62A000EF7220B00F55056
:104C1000400B07E0460E01018C5D01E0FBD7A6B218
:104C2000FED7040EE15C03E200D0E16AE552E16EDA
:104C3000E552E7CFD9FF1200D9CFE6FFE1CFD9FF88
:104C4000040EE126DE6ADD6AFB0EDBCF08F0FC0E07
:104C5000DBCF09F0020E08C0DBFF030E09C0DBFF4B
:104C6000FE0EDBCF14F01E0EE76E1418E8AE02D075
:104C7000E73402D0E750145C01E37ED0FE0EDBCFB8
:104C8000F6FFF76AF6BEF768050EF702F3CFF7FFF7
:104C9000F602F3CFF6FFF450F726CE0EF626740E8A
:104CA000F7220800F550F36EFE0EDB50F35C64E172
:104CB000D950FB0FE96EFF0EDA20EA6EEE50ED10D0
:104CC0005BE0FE0EDBCFF6FFF76AF6BEF768050E77
:104CD000F702F3CFF7FFF602F3CFF6FFF450F72613
:104CE000CE0EF626740EF722040EF626000EF722DC
:104CF0000800F550F36EFD0EDBCFF4FFF350F45CCB
:104D00003BE2FE0EDBCFF6FFF76AF6BEF768050E54
:104D1000F702F3CFF7FFF602F3CFF6FFF450F726D2
:104D2000CE0EF626740EF722030EF626000EF7229C
:104D30000800F550156E166A200E151802E1000ED7
:104D400016181AE1FE0EDBCFF6FFF76AF6BEF7681B
:104D5000050EF702F3CFF7FFF602F3CFF6FFF4509C
:104D6000F726CE0EF626740EF722F62A000EF7224C
:104D70000B00F550800B01E054D0FB0EDBCF08F0A8
:104D8000FC0EDBCF09F0020E08C0DBFF030E09C0EA
:104D9000DBFFFE0EDBCFF6FFF76AF6BEF768050E07
:104DA000F702F3CFF7FFF602F3CFF6FFF450F72642
:104DB000CE0EF626740EF722F62A000EF722090010
:104DC000F5CF16F00800F5CF17F0FF0E16163F0EC0
:104DD0001716FD0EDB50186E196A200E086E096A50
:104DE00018C00DF019C00EF0D6EC47F0165006248E
:104DF000146E17500720156E14C0DEFF15C0DDFFBE
:104E0000020EDBCFE6FF030EDBCFE6FF200EE66EE1
:104E1000DECFE6FFDDCFE6FF73D8146E050EE15E50
:104E20001450040EE15C03E200D0E16AE552E16E49
:104E3000E552E7CFD9FF1200D9CFE6FFE1CFD9FF86
:104E4000050EE126FA0EDBCFDEFFDBCFDDFF020E23
:104E5000DB6AFD0EDBCF08F0FE0EDBCF09F0030EA0
:104E600008C0DBFF040E09C0DBFF0101010E866FE5
:104E7000A6B2FED7020EDB6AFC0EDB50F36E020E0A
:104E8000DBCFF4FFF350F45C2DE2030EDBCF14F024
:104E9000040EDBCF15F015C014F0156A1450AA6E7D
:104EA000FF0EE76E030EDBCF14F0040EDBCF15F020
:104EB000E7501416156A1450A96EA69EA69CA680EB
:104EC000DECFE9FFDDCFEAFFA8CFEFFFDF2A010E3B
:104ED00001E3DB2A030EDB2A040E01E3DB2A020EC8
:104EE000DB2ACAD70101866BEDD8050EE15C03E22F
:104EF00000D0E16AE552E16EE552E7CFD9FF12003A
:104F0000D9CFE6FFE1CFD9FF040EE126FA0EDBCFC1
:104F1000DEFFDBCFDDFF020EDB6A030EDB6AFC0E79
:104F2000DB50030F01018C5D44E3FC0EDB500008F5
:104F300040E2FD0EDBCF14F0FE0EDBCF15F015C006
:104F400014F0156A1450E66E44D8E552FF0EE76E71
:104F5000FD0EDBCF14F0FE0EDBCF15F0E75014167C
:104F6000156A1450E66E35D8E552FC0EDBCFE6FF2D
:104F700030D8E552020EDB6AFC0EDB50F36E020EF7
:104F8000DBCFF4FFF350F45C0FE2DECFE9FFDDCFBF
:104F9000EAFFEF50E66E1DD8E552DF2A010E01E36D
:104FA000DB2A020EDB2AE8D7010EF36E030EF3CFE5
:104FB000DBFF88D8030EDB50146E040EE15C03E2C5
:104FC00000D0E16AE552E16E1450E552E7CFD9FF17
:104FD0001200D9CFE6FFE1CFD9FFE66A0FEC4EF021
:104FE000E55201018B51EA6ABA0FE96E000EEA221E
:104FF000FE0EDBCFEFFF8B2B460E8B5D01E38B6B41
:105000008C07E66AEAEC4DF0E55200D0E552E7CFB6
:10501000D9FF1200D9CFE6FFE1CFD9FFE652DF6A10
:10502000E66A0FEC4EF0E55201018A51EA6ABA0FC6
:10503000E96E000EEA22EFCFDFFF8A2B460E8A5D73
:1050400001E38A6B8C2BE66AEAEC4DF0E552DF5007
:1050500000D0E552E552E7CFD9FF1200460E01011C
:105060008C5D29E2D7DF0101886F88C189F1886BE7
:10507000D1DF146E156A145001018813155089137D
:10508000C9DF0101876F460ED8808C55D8808755BF
:1050900009E34F0ED8808855000E895503E28C51E4
:1050A000460808E2876B460E8C6F886BF00E896F9E
:1050B0008A6B8B6B05D0460E8C6F886BF00E896FF8
:1050C00000D01200D9CFE6FFE1CFD9FFE652DF6A68
:1050D000A650020B5AE1460E01018C5D56E0010E0E
:1050E000E66E0FEC4EF0E5520101875101E1B6DFAB
:1050F000010187511EE08EDFDF6E89C114F0156A51
:10510000030E1414AA6E01018851A96EA69EA69CD6
:10511000A680DF50A85C04E18707882B000E892356
:10512000875101E19BDF0101875103E0DF50A85C5B
:10513000E2E0DF50A85C02E18751D6E1875125E02B
:10514000E66A0FEC4EF0E55289C114F0156A030EC1
:105150001414AA6E01018851A96EDF50A86EA69E94
:10516000A69CA684550EA76EAA0EA76EA682E66A16
:10517000EAEC4DF0E55201018707882B000E8923E8
:10518000010EE66EEAEC4DF0E55200D0E552E55234
:10519000E7CFD9FF1200D9CFE6FFE1CFD9FFE65222
:1051A000DF6AA198460E146E01018C51D880145408
:1051B0000CE3010EE66E0FEC4EF0E552A6940101F1
:1051C000460E8C6F8BC18AF14AD0860507E1A69402
:1051D000010EE66E0FEC4EF0E55241D0875101E131
:1051E0003DDF010187511EE015DFDF6E89C114F03C
:1051F000156A030E1414AA6E01018851A96EA69EA9
:10520000A69CA680DF50A85C04E18707882B000ECF
:105210008923875101E122DF0101875103E0DF503B
:10522000A85CE2E0DF50A85C02E18751D7E187513A
:1052300016E089C114F0156A030E1414AA6E885181
:10524000A96EDF50A86EA69EA69CA684550EA76EDA
:10525000AA0EA76EA6828707882B000E892300D08E
:0A526000E552E552E7CFD9FF120036
:06526A00E66A0FEC4EF0B5
:10527000E552FD0E8C148C6EE66A6CD9E552020E76
:105280008C108C6EE66AEAEC4DF0E552E66A0FECA3
:105290004EF0E552FB0E8C148C6EE66A5BD9E5523B
:1052A000040E8C108C6EE66AEAEC4DF0E55200D0EC
:1052B0001200D9CFE6FFE1CFD9FF030EE126DF6A66
:1052C000010EDB6A020EDB6AE66A0FEC4EF0E55275
:1052D000FD0E8C148C6EE00EE66E010EE66E50D85C
:1052E000E552E552020E8C108C6EE66AEAEC4DF047
:1052F000E552E66A0FEC4EF0E552FB0E8C148C6E14
:10530000E20EE66E010EE66E3BD8E552E552040E63
:105310008C108C6EE66AEAEC4DF0E5520101D88003
:10532000E15104E7000EE05DFB0EE15919E3E135C0
:1053300004E2E05100080A0EE15512E3D880E3517F
:1053400004E7000EE25DFB0EE3590AE3E33504E2F5
:10535000E25100080A0EE35503E357D8DF6E02D08E
:10536000010EDF6EDF50146E030EE15C03E200D02D
:10537000E16AE552E16E1450E552E7CFD9FF120021
:10538000D9CFE6FFE1CFD9FF020EE126DE6ADD6A62
:10539000E3EC4FF0F3CF14F0F4CF15F0030ED890F8
:1053A00015321432E804FBE1FF0E14161F0E151619
:1053B00014C0DEFF15C0DDFFDECF14F0DDCF15F029
:1053C000000E1416100E1516145002E1100E1518CA
:1053D00007E1D9CFE9FFDACFEAFFEE52E00EED1296
:1053E000FD0EDBCFE9FFFE0EDBCFEAFFDECFEEFFE7
:1053F000DDCFEDFF020EE15C03E200D0E16AE55291
:10540000E16EE552E7CFD9FF1200D9CFE6FFE1CF39
:10541000D9FF030EE126010EDF6EDB6A020EDB6AA6
:105420000101E051E25D146EE351E155156E010E8C
:1054300014C0DBFF020E15C0DBFF010EDBCF14F042
:10544000020EDBCF15F00001800E151410E0086885
:105450000968010EDBCF0DF0020EDBCF0EF0A9ECD8
:1054600047F0DE5206C0DEFF07C0DDFFDD52010E51
:10547000DBCF14F0020EDBCF15F0153404E214502C
:10548000F008000E155417E2010EE66EA4EC36F09B
:10549000E552000907E1010EE66EE66EE8EC35F034
:1054A000E552E552010EE66EA4EC36F0E552030833
:1054B00001E1DF6A07D0E66A010EE66EE8EC35F03E
:1054C000E552E552DF50146E030EE15C03E200D0BA
:1054D000E16AE552E16E1450E552E7CFD9FF1200C0
:1054E000D9CFE6FFE1CFD9FF020EE126DE6ADD6A01
:1054F000E3EC4FF0F3CFDEFFF4CFDDFFFD0EDBCFAB
:10550000E9FFFE0EDBCFEAFFDECFEEFFDDCFEDFFE2
:10551000010EE66E1FD8E552E3EC4FF0F3CF14F026
:10552000F4CF15F0FB0EDBCFE9FFFC0EDBCFEAFF7B
:1055300014C0EEFF15C0EDFFE66A0CD8E552020E6E
:10554000E15C03E200D0E16AE552E16EE552E7CFAB
:10555000D9FF1200D9CFE6FFE1CFD9FF9498FE0E14
:10556000DB50E8B08B88E8A08B98000EE66EE66A08
:10557000ACEC4FF0E552E552948800D0E552E7CF0D
:10558000D9FF1200D9CFE6FFE1CFD9FF0F0EE126F8
:10559000DF6A010EDB6A020EDB6A030EDB6A040EB1
:1055A000DB6A050EDB6A060EDB6A070EDB6A080E95
:1055B000DB6A090EDB6A0A0EDB6A0B0EDB6A0C0E75
:1055C000DB6A0D0EDB6A0E0EDB6AE66A0FEC4EF04C
:1055D000E552FD0E8C148C6ED950030FE66E000E52
:1055E000DA20E66ED950010FE66E000EDA20E66E84
:1055F00077DFE552E552E552E552020E8C108C6ED3
:10560000E66AEAEC4DF0E552E66A0FEC4EF0E55240
:10561000FB0E8C148C6ED950070FE66E000EDA204C
:10562000E66ED950050FE66E000EDA20E66E58DF02
:10563000E552E552E552E552040E8C108C6EE66A96
:10564000EAEC4DF0E552030EDBCF14F0040EDBCF95
:1056500015F0000E1416FF0E1516145002E1540E2C
:10566000151801E102D0010EDF6E070EDBCF14F03A
:10567000080EDBCF15F0000E1416FF0E1516145091
:1056800002E1540E151801E101D0DF82DF5001E084
:1056900035D1040EE76E050EDBCF14F0060EDBCF1E
:1056A00015F0E7501416156A040E141801E1155090
:1056B00001E024D1040EE76E010EDBCF16F0020EDE
:1056C000DBCF17F0E7501616176A040E161801E123
:1056D000175001E013D1010EDBCF14F0020EDBCF27
:1056E00015F0030ED89015321432E804FBE1FF0EDA
:1056F00014161F0E15160B0E14C0DBFF0C0E15C072
:10570000DBFF0B0EDBCF14F00C0EDBCF15F0000E21
:105710001416100E1516145002E1100E151808E19B
:10572000D9500B0FE96EDACFEAFFEE52E00EED1220
:10573000050EDBCF14F0060EDBCF15F0030ED8906C
:1057400015321432E804FBE1FF0E14161F0E151675
:105750000D0E14C0DBFF0E0E15C0DBFF0D0EDBCFF0
:1057600014F00E0EDBCF15F0000E1416100E1516E9
:10577000145002E1100E151808E1D9500D0FE96E12
:10578000DACFEAFFEE52E00EED120B0EDBCF14F093
:105790000C0EDBCF15F0D880155004E7000E145C1A
:1057A000FB0E155872E30B0EDBCF16F00C0EDBCFA1
:1057B00017F0173404E2165000080A0E175465E378
:1057C0000D0EDBCF18F00E0EDBCF19F0D88019507C
:1057D00004E7000E185CFB0E195857E30D0EDBCFE3
:1057E0001AF00E0EDBCF1BF01B3404E21A50000837
:1057F0000A0E1B544AE3050EDBCF16F0060EDBCF74
:1058000017F0F80E1616FF0E1716010EDBCF18F064
:10581000020EDBCF19F0F80E1816FF0E19161850ED
:10582000165C146E19501758156E090E14C0DBFF64
:105830000A0E15C0DBFF090EDBCF14F00A0EDBCF1A
:1058400015F00001800E151410E008680968090EB3
:10585000DBCF0DF00A0EDBCF0EF0A9EC47F0090EFE
:1058600006C0DBFF0A0E07C0DBFF090EDBCF14F01A
:105870000A0EDBCF15F0153404E2145080080C0E2C
:10588000155402E2030EDF6E39D00B0EDBCF14F09D
:105890000C0EDBCF15F0D880155004E7000E145C19
:1058A000FB0E15580DE30B0EDBCF16F00C0EDBCF05
:1058B00017F0173404E2165000080A0E175402E2DB
:1058C000010EDF6E0D0EDBCF14F00E0EDBCF15F0E8
:1058D000D880155004E7000E145CFB0E15580DE33C
:1058E0000D0EDBCF16F00E0EDBCF17F0173404E2EF
:1058F000165000080A0E175401E2DF82DF50146EC2
:105900000F0EE15C03E200D0E16AE552E16E145053
:10591000E552E7CFD9FF120095EC42F001080AE109
:105920000101E551010806E3E06BE16BE26BE36B1B
:10593000E52B1BD0E66A89EC42F0E5520101E56BEC
:10594000B8DC0101E46FE45109E1010EE66E0A0ED4
:10595000E66E86EC31F0E552E55207D0E66A0A0EB3
:10596000E66E86EC31F0E552E55200D012000101FE
:10597000E45100D01200D9CFE6FFE1CFD9FF020EEB
:10598000E126DE6ADD6AFE0EDB0405E1E2C1DEFF30
:10599000E3C1DDFF04D0E0C1DEFFE1C1DDFFDECF0A
:1059A00014F0DDCF15F014C0F3FF15C0F4FF020EA4
:1059B000E15C03E200D0E16AE552E16EE552E7CF37
:1059C000D9FF12000101D890E15104E6A00EE05D7C
:1059D000050EE1590AE2D890E35104E6A00EE25D1B
:1059E000050EE35902E2E66B20D0D890E15104E6BF
:1059F000400EE05D060EE15907E3E13504E2E051B7
:105A000000080A0EE1550FE2D890E35104E6400E7B
:105A1000E25D060EE35909E3E33504E2E2510008D2
:105A20000A0EE35502E3010EE66FE65100D01200C4
:105A3000D9CFE6FFE1CFD9FF080EE126DE6ADD6AA5
:105A4000020EDB6A030EDB6A040EDB6A050EDB6AFC
:105A5000060EDB6A070EDB6AE66A0FEC4EF0E552D3
:105A6000FD0E8C148C6ED950020FE66E000EDA20FB
:105A7000E66ED9CFE6FFDACFE6FF32DDE552E5523A
:105A8000E552E552020E8C108C6EE66AEAEC4DF09F
:105A9000E552E66A0FEC4EF0E552FB0E8C148C6E6C
:105AA000D950060FE66E000EDA20E66ED950040FCC
:105AB000E66E000EDA20E66E13DDE552E552E552A1
:105AC000E552040E8C108C6EE66AEAEC4DF0E5525D
:105AD000080EE15C03E200D0E16AE552E16EE552B6
:065AE000E7CFD9FF120020
:0A5AE600D9CFE6FFE1CFD9FFE65269
:105AF000DF6A23D8DF6A0E0EDF5C18E2EA6ADF3461
:105B0000FE0BEA36E96E000EE926010EEA22EE6A85
:105B1000ED6AEA6ADF34FE0BEA36E96E1C0EE9260E
:105B2000010EEA22EE6AED6ADF2AE5D733D800D00B
:105B3000E552E552E7CFD9FF1200A80EE66E010E3E
:105B4000E66EE66A130EE66E82EC21F0E552E5524F
:105B5000E552E552AA0EE66E010EE66EE66A140EF6
:105B6000E66E82EC21F0E552E552E552E552FF0E79
:105B70000101A81902E1FF0EA91902E1A86BA96BA6
:105B8000FF0EAA1902E1FF0EAB1902E1AA6BAB6B83
:105B900000D01200D9CFE6FFE1CFD9FFE652DF6A8D
:105BA000DF6A040EDF5C18E2EA6ADF34FE0BEA36D5
:105BB000E96E380EE926010EEA22EE6AED6AEA6A1B
:105BC000DF34FE0BEA36E96E400EE926010EEA22CA
:105BD000EE6AED6ADF2AE5D700D0E552E552E7CF5D
:105BE000D9FF12000101B00508E109D87ED8010EE5
:105BF000E66EF5DAE5523BEC4EF000D01200D9CF5C
:105C0000E6FFE1CFD9FF030EE126DE6ADD6A020E70
:105C1000DB6AFD0E8B148B6EFE0E8B148B6E040EE6
:105C2000E66E70DAE552F3CFDEFFF4CFDDFF010E52
:105C30008B108B6E4D0EE66E31EC37F0E552040E94
:105C4000E66E60DAE552F3CFA0F1F4CFA1F1FE0EDB
:105C50008B148B6EDECF14F0DDCF15F00101A05157
:105C6000145CA151155809E2000EDB50A05DA46F31
:105C7000010EDB50A159A56F02D0A46BA56B37ECC8
:105C80004EF0E76E020EE7CFDBFFDB5006E00101CE
:105C9000D890A437A537E804FBE13F0E0101A51712
:105CA000B151E96EEA6AD890E936EA36000EE92683
:105CB000010EEA22A4C1EEFFA5C1EDFFB129146EC9
:105CC0000A0E156E15C00EF014C009F051EC51F01B
:105CD00005C0B1F1030EE15C03E200D0E16AE552D8
:105CE000E16EE552E7CFD9FF1200D9CFE6FFE1CF51
:105CF000D9FF050EE126DF6A010EDB6A020EDB6AC0
:105D0000030EDB6A040EDB6ADF6A0A0EDF5C2AE23E
:105D1000EA6ADF34FE0BEA36E96E000EE926010E70
:105D2000EA22EECF14F0EFCF15F0166A176AD950B9
:105D3000010FE96EDACFEAFFEE501426EE5015227D
:105D4000EE501622EE501722010E14C0DBFF020E99
:105D500015C0DBFF030E16C0DBFF040E17C0DBFF10
:105D6000DF2AD3D7010EDBCF06F0020EDBCF07F020
:105D7000030EDBCF08F0040EDBCF09F00A0E0B6E2A
:105D80000C6A0D6A0E6AECEC50F006C0A4F107C074
:105D9000A5F13F0E0101A517050EE15C03E200D05D
:105DA000E16AE552E16EE552E7CFD9FF1200010149
:105DB000B05106E124DF06D8010EE66E10DAE55296
:105DC00000D01200D9CFE6FFE1CFD9FF030EE126C4
:105DD000DF6A010EDB6A020EDB6A0101B251E96E75
:105DE000EA6AD890E936EA36380EE926010EEA2248
:105DF000A4C1EEFFA5C1EDFFB229030BB26FDF6AAC
:105E0000040EDF5C1DE2010EDBCF16F0020EDBCFCD
:105E100017F0EA6ADF34FE0BEA36E96E380EE9263F
:105E2000010EEA221650EE24146E1750EE20156E65
:105E3000010E14C0DBFF020E15C0DBFFDF2AE0D726
:105E4000010EDBCFA4F1020EDBCFA5F10F0B010198
:105E500005E0D890A533A433E806FBE1030E010169
:105E6000A517E15C03E200D0E16AE552E16EE5527C
:105E7000E7CFD9FF12000101B00507E108D87DD8AE
:105E8000E66AADD9E5523BEC4EF000D01200D9CF16
:105E9000E6FFE1CFD9FF030EE126DE6ADD6A020EDE
:105EA000DB6AFD0E8B148B6EFE0E8B148B6E050E53
:105EB000E66E28D9E552F3CFDEFFF4CFDDFF020E08
:105EC0008B108B6E4D0EE66E31EC37F0E552050E01
:105ED000E66E18D9E552F3CFA2F1F4CFA3F1FD0E8F
:105EE0008B148B6EDECF14F0DDCF15F00101A251C3
:105EF000145CA351155809E2000EDB50A25DA66F99
:105F0000010EDB50A359A76F02D0A66BA76B37EC2D
:105F10004EF0E76E020EE7CFDBFFDB5006E001013B
:105F2000D890A637A737E804FBE13F0E0101A71779
:105F3000B351E96EEA6AD890E936EA361C0EE926D2
:105F4000010EEA22A6C1EEFFA7C1EDFFB329146E30
:105F50000E0E156E15C00EF014C009F051EC51F084
:105F600005C0B3F1030EE15C03E200D0E16AE55243
:105F7000E16EE552E7CFD9FF1200D9CFE6FFE1CFBE
:105F8000D9FF050EE126DF6A010EDB6A020EDB6A2D
:105F9000030EDB6A040EDB6ADF6A0E0EDF5C2AE2A8
:105FA000EA6ADF34FE0BEA36E96E1C0EE926010EC2
:105FB000EA22EECF14F0EFCF15F0166A176AD95027
:105FC000010FE96EDACFEAFFEE501426EE501522EB
:105FD000EE501622EE501722010E14C0DBFF020E07
:105FE00015C0DBFF030E16C0DBFF040E17C0DBFF7E
:105FF000DF2AD3D7010EDBCF06F0020EDBCF07F08E
:10600000030EDBCF08F0040EDBCF09F00E0E0B6E93
:106010000C6A0D6A0E6AECEC50F006C0A6F107C0DF
:10602000A7F13F0E0101A717050EE15C03E200D0C6
:10603000E16AE552E16EE552E7CFD9FF12000101B6
:10604000B05105E124DF05D8E66AC9D8E55200D091
:106050001200D9CFE6FFE1CFD9FF030EE126DF6AB8
:10606000010EDB6A020EDB6A0101B451E96EEA6AD5
:10607000D890E936EA36400EE926010EEA22A6C19A
:10608000EEFFA7C1EDFFB429030BB46FDF6A040E66
:10609000DF5C1DE2010EDBCF16F0020EDBCF17F046
:1060A000EA6ADF34FE0BEA36E96E400EE926010E9D
:1060B000EA221650EE24146E1750EE20156E010ED3
:1060C00014C0DBFF020E15C0DBFFDF2AE0D7010E94
:1060D000DBCFA6F1020EDBCFA7F10F0B010105E02C
:1060E000D890A733A633E806FBE1030E0101A717FA
:1060F000E15C03E200D0E16AE552E16EE552E7CFF0
:10610000D9FF1200D9CFE6FFE1CFD9FF030EE12678
:10611000DF6A010EDB6A020EDB6ADF6A040EDF5CF7
:1061200024E2010EDBCF16F0020EDBCF17F016C013
:10613000E6FF17C0E6FFFE0EDBCFE6FF85EC50F072
:10614000E552E552E7CF17F0E552E7CF16F01650CB
:10615000F324146E1750F420156E010E14C0DBFFEB
:10616000020E15C0DBFFDF2AD9D7040E146E156AA4
:10617000010EDBCF08F0020EDBCF09F014C00DF0EA
:1061800015C00EF02DEC51F0DE5208C0DEFF09C044
:10619000DDFFDD52010EDBCF14F0020EDBCF15F078
:1061A000FF0E1416030E1516010E14C0DBFF020EAF
:1061B00015C0DBFF010EDBCF14F0020EDBCF15F0B4
:1061C00014C0F3FF15C0F4FF030EE15C03E200D03E
:1061D000E16AE552E16EE552E7CFD9FF1200D9CF6F
:1061E000E6FFE1CFD9FFFE0EDB0410E10101A4516F
:1061F000A85DA551A95907E2A851A45DAC6FA951AA
:10620000A559AD6F02D0AC6BAD6B0FD00101A6519B
:10621000AA5DA751AB5907E2AA51A65DAE6FAB517B
:10622000A759AF6F02D0AE6BAF6B00D0E552E7CF8E
:10623000D9FF1200D9CFE6FFE1CFD9FF020EE12648
:10624000DE6ADD6AFE0EDB0405E1ACC1DEFFADC136
:10625000DDFF04D0AEC1DEFFAFC1DDFFDECF14F045
:10626000DDCF15F014C0F3FF15C0F4FF020EE15CA2
:1062700003E200D0E16AE552E16EE552E7CFD9FFD3
:106280001200D9CFE6FFE1CFD9FF020EE126DE6A88
:10629000DD6AFE0EDB0405E1A0C1DEFFA1C1DDFF6A
:1062A00004D0A2C1DEFFA3C1DDFFDECF14F0DDCF3D
:1062B00015F014C0F3FF15C0F4FF020EE15C03E219
:1062C00000D0E16AE552E16EE552E7CFD9FF120056
:1062D000D9CFE6FFE1CFD9FFFE0EDBCFB0F100D082
:0862E000E552E7CFD9FF1200DF
:0862E8000101010EFB6FE66AE3
:1062F000200EE66E480EE66E010EE66E22EC1EF0F3
:10630000E552E552E552E55200D01200D9CFE6FF42
:10631000E1CFD9FF020EE126480EDE6E010EDD6EE2
:106320000101FB5101E1E0DFFE0EDBCF14F0000EB6
:10633000E76E1418E8AE02D0143403D0E750D880CA
:10634000145432E2FE0EDBCF15F0110EE76E151875
:10635000E8AE02D0E73402D0E750155C25E2DECF8C
:10636000E6FFDDCFE6FFFE0EDB04E66E1D0EE66EF9
:1063700036EC23F0E552E552E552E552FD0EDB50D6
:1063800003E10101485106E0FD0EDB0404E10101D7
:10639000480501E109D0FD0EDBCFE6FFFE0EDBCFA5
:1063A000E6FF0DD8E552E552020EE15C03E200D0B3
:1063B000E16AE552E16EE552E7CFD9FF1200D9CF8D
:1063C000E6FFE1CFD9FF020EE126480EDE6E010E98
:1063D000DD6EFD0EDB5012E10101486BDECFE6FF02
:1063E000DDCFE6FFFE0EDB04E66E1D0EE66E1CEC56
:1063F00026F0E552E552E552E55239D001014D5102
:106400000BE103EC37F006C04EF107C04FF108C0B6
:1064100050F109C051F10AD003EC37F006C055F134
:1064200007C056F108C057F109C058F1650EE66E75
:10643000010EE66EFE0EDBCFE6FF24D8E552E552F4
:10644000E5520101010E486F070E4D5D01E24D2B33
:10645000DECFE6FFDDCFE6FFFE0EDB04E66E1D0EAF
:10646000E66E1CEC26F0E552E552E552E552020ECE
:10647000E15C03E200D0E16AE552E16EE552E7CF6C
:10648000D9FF1200D9CFE6FFE1CFD9FF0F0EE126E9
:10649000D9CFE6FFDACFE6FF9FEC1DF0E552E552DB
:1064A0000C0EDB5006E1FE0EDB50030802E059EC57
:1064B00029F0FE0EDB50100A01E1F7D11F0A01E1BD
:1064C000ADD1020A01E176D1070A01E144D1010A06
:1064D00001E141D1070A01E13ED1050A01E107D1FD
:1064E000010A01E1C2D00F0A01E18BD0010A55E097
:1064F000030A22E0FC0EDBCFE9FFFD0EDBCFEAFF53
:10650000EF6A010EE76EFC0EDBCFE9FFFD0EDBCF7D
:10651000EAFFE750E926000EEA22EF6A020EE76E74
:10652000FC0EDBCFE9FFFD0EDBCFEAFFE750E926EB
:10653000000EEA22EF6AE8D1E66AF1D9E552E66E8A
:10654000FC0EDBCFE9FFFD0EDBCFEAFFE552E750A3
:10655000EF6EDECF14F0DDCF15F015C014F0156A24
:10656000010EE76EFC0EDBCFE9FFFD0EDBCFEAFF8D
:10657000E750E926000EEA2214C0EFFF020EE76E94
:10658000FC0EDBCFE9FFFD0EDBCFEAFFE750E9268B
:10659000000EEA22DFCFEFFFB7D1E66AC0D9E5529D
:1065A000E66EFC0EDBCFE9FFFD0EDBCFEAFFE55226
:1065B000E750EF6E020EDBCF14F0030EDBCF15F0C9
:1065C00015C014F0156A010EE76EFC0EDBCFE9FF73
:1065D000FD0EDBCFEAFFE750E926000EEA2214C0E9
:1065E000EFFF020EE76EFC0EDBCFE9FFFD0EDBCF07
:1065F000EAFFE750E926000EEA22020EDBCFEFFFAA
:1066000083D1E66A8CD9E552E66EFC0EDBCFE9FF5A
:10661000FD0EDBCFEAFFE552E750EF6E040EDBCF55
:1066200014F0050EDBCF15F015C014F0156A010E3D
:10663000E76EFC0EDBCFE9FFFD0EDBCFEAFFE75094
:10664000E926000EEA2214C0EFFF020EE76EFC0EF0
:10665000DBCFE9FFFD0EDBCFEAFFE750E926000EB6
:10666000EA22040EDBCFEFFF4FD1E66A58D9E5529C
:10667000E66EFC0EDBCFE9FFFD0EDBCFEAFFE55255
:10668000E750EF6E060EDBCF14F0070EDBCF15F0F0
:10669000D89015321432D89015321432010EE76EAC
:1066A000FC0EDBCFE9FFFD0EDBCFEAFFE750E9266A
:1066B000000EEA2214C0EFFF080EDBCF14F0090E23
:1066C000DBCF15F0D89015321432D8901532143231
:1066D000020EE76EFC0EDBCFE9FFFD0EDBCFEAFF1B
:1066E000E750E926000EEA2214C0EFFF0DD1E66A5A
:1066F00016D9E552E66EFC0EDBCFE9FFFD0EDBCFCF
:10670000EAFFE552E750EF6E0A0EDBCF14F00B0EF6
:10671000DBCF15F015C014F0156A010EE76EFC0E04
:10672000DBCFE9FFFD0EDBCFEAFFE750E926000EE5
:10673000EA2214C0EFFF020EE76EFC0EDBCFE9FF8A
:10674000FD0EDBCFEAFFE750E926000EEA220A0E33
:10675000DBCFEFFFD9D0E66AE2D8E552E66EFC0E59
:10676000DBCFE9FFFD0EDBCFEAFFE552E750EF6E2E
:10677000010EE66ED4D8E552E66E010EE76EFC0E11
:10678000DBCFE9FFFD0EDBCFEAFFE750E926000E85
:10679000EA22E552E750EF6E020EE76EFC0EDBCF09
:1067A000E9FFFD0EDBCFEAFFE750E926000EEA2203
:1067B000EF6AAAD0E66AB3D8E552E66EFC0EDBCFEC
:1067C000E9FFFD0EDBCFEAFFE552E750EF6E17EC75
:1067D0004AF00D0EF3CFDBFF0E0EF4CFDBFF010E00
:1067E000E76EFC0EDBCFE9FFFD0EDBCFEAFFE750E3
:1067F000E926000EEA220D0EDBCFEFFF020EE76E58
:10680000FC0EDBCFE9FFFD0EDBCFEAFFE750E92608
:10681000000EEA220E0EDBCFEFFF76D0E66A7FD8BD
:10682000E552E66EFC0EDBCFE9FFFD0EDBCFEAFFA3
:10683000E552E750EF6E010EE66E20EC45F0E552B2
:10684000F3CF14F0F4CF15F0060ED89015321432B1
:10685000E804FBE1010EE76EFC0EDBCFE9FFFD0E65
:10686000DBCFEAFFE750E926000EEA2214C0EFFF73
:10687000E66A20EC45F0E552F3CF14F0F4CF15F0C2
:10688000060ED89015321432E804FBE1020EE76ED2
:10689000FC0EDBCFE9FFFD0EDBCFEAFFE750E92678
:1068A000000EEA2214C0EFFF2FD0E66A38D8E55276
:1068B000E66EFC0EDBCFE9FFFD0EDBCFEAFFE55213
:1068C000E750EF6E010EE66E2AD8E552E66E010E35
:1068D000E76EFC0EDBCFE9FFFD0EDBCFEAFFE750F2
:1068E000E926000EEA22E552E750EF6E020EE76E4F
:1068F000FC0EDBCFE9FFFD0EDBCFEAFFE750E92618
:10690000000EEA22EF6A00D00F0EE15C03E200D035
:10691000E16AE552E16EE552E7CFD9FF1200D9CF27
:10692000E6FFE1CFD9FF030EE126DE6ADD6A020E43
:10693000DB6AFE0EDBCFE6FFBBEC2CF0E552F3CFBB
:10694000DEFFF4CFDDFFD9CFE9FFDACFEAFFEE506B
:10695000ED100CE159EC29F0FE0EDBCFE6FFBBECAD
:106960002CF0E552F3CFDEFFF4CFDDFFDECF14F0E5
:10697000DDCF15F0050ED89015321432E804FBE196
:10698000020E14C0DBFFDB50146E030EE15C03E269
:1069900000D0E16AE552E16E1450E552E7CFD9FF2D
:0269A0001200E3
:0E69A200D9CFE6FFE1CFD9FF290EE126DF6A4B
:1069B000070EF36E010EF3CFDBFF020EDB6A030E50
:1069C000DB6A040EDB6A7F0EF36E050EF3CFDBFF8E
:1069D000120EF36E060EF3CFDBFF070EDB6A080E16
:1069E000DB6A2A0EF36E090EF3CFDBFF850EF36E22
:1069F0000A0EF3CFDBFF0B0EDB6A0C0EDB6A0E0E0A
:106A0000F36E0D0EF3CFDBFF0E0EDB6A0F0EDB6AAB
:106A1000100EDB6A2B0EF36E110EF3CFDBFF120E9E
:106A2000DB6A130EDB6A140EDB6A1C0EF36E150EA6
:106A3000F3CFDBFF160EDB6A170EDB6A180EDB6A7C
:106A40001C0EF36E190EF3CFDBFF010EF36E1A0E60
:106A5000F3CFDBFF1B0EDB6A1C0EDB6A070EF36E47
:106A60001D0EF3CFDBFF1E0EDB6A1F0EDB6A200E4E
:106A7000DB6A5F0EF36E210EF3CFDBFF220EDB6AC3
:106A8000230EDB6A240EDB6A1C0EF36E250EF3CF99
:106A9000DBFF010EF36E260EF3CFDBFF270EDB6A62
:106AA000280EDB6ADF6A0A0EDF5C01E386D0D9506C
:106AB000010F186EDACF19F0DF50040D1850F324CF
:106AC000E96E1950F420EA6EEECF14F0EECF15F017
:106AD000EECF16F0EFCF17F0DF50090DF3CFE9FF3F
:106AE000F4CFEAFF600EE926000EEA22050EE92641
:106AF000000EEA2214C0EEFF15C0EEFF16C0EEFF36
:106B000017C0EEFFDF50090DF3CFE9FFF4CFEAFF26
:106B1000600EE926000EEA22EF044DE1DF50090D78
:106B2000F3CFE9FFF4CFEAFF600EE926000EEA2278
:106B3000EE52EECF14F0EECF15F0EECF16F0EFCF11
:106B400017F0145015101610171001E110D0DF5077
:106B5000090DF3CFE9FFF4CFEAFF600EE926000E3E
:106B6000EA22EE52EE06000EEE5AEE5AEE5ADF50D0
:106B7000090DF3CFE9FFF4CFEAFF600EE926000E1E
:106B8000EA22EE52EECF14F0EECF15F0EECF16F073
:106B9000EFCF17F014501510161017100CE1DF503E
:106BA000090DF3CFE9FFF4CFEAFF600EE926000EEE
:106BB000EA22030EEF6EDF2A76D7290EE15C03E2AC
:106BC00000D0E16AE552E16EE552E7CFD9FF12004D
:106BD000D9CFE6FFE1CFD9FFFE0EDBCFE9FFEA6AAE
:106BE000E9BEEA68090EEA02F3CFEAFFE902F3CF51
:106BF000E9FFF450EA26600EE926000EEA22FD0EB7
:106C0000DBCFEFFFFE0EDBCFE9FFEA6AE9BEEA6801
:106C1000090EEA02F3CFEAFFE902F3CFE9FFF450ED
:106C2000EA26600EE926000EEA22050EE926000E8D
:106C3000EA22EECF14F0EECF15F0EECF16F0EFCF44
:106C400017F0FE0EDBCFE9FFEA6AE9BEEA68090E3B
:106C5000EA02F3CFEAFFE902F3CFE9FFF450EA26B4
:106C6000600EE926000EEA22EE5214C0EEFF15C0B7
:106C7000EEFF16C0EEFF17C0EEFF00D0E552E7CFE3
:106C8000D9FF1200D9CFE6FFE1CFD9FFFE0EDBCF4F
:106C9000E9FFEA6AE9BEEA68090EEA02F3CFEAFF11
:106CA000E902F3CFE9FFF450EA26600EE926000E70
:106CB000EA22050EE926000EEA22FA0EDBCFEEFFED
:106CC000FB0EDBCFEEFFFC0EDBCFEEFFFD0EDBCFCE
:106CD000EEFFFE0EDBCFE9FFEA6AE9BEEA68090EC5
:106CE000EA02F3CFEAFFE902F3CFE9FFF450EA2624
:106CF000600EE926000EEA22EE52FA0EDBCFEEFF1E
:106D0000FB0EDBCFEEFFFC0EDBCFEEFFFD0EDBCF8D
:106D1000EEFFFE0EDBCFE9FFEA6AE9BEEA68090E84
:106D2000EA02F3CFEAFFE902F3CFE9FFF450EA26E3
:106D3000600EE926000EEA22F90EDBCFEFFF00D04D
:106D4000E552E7CFD9FF1200D9CFE6FFE1CFD9FF57
:106D5000FE0EDBCFE9FFEA6AE9BEEA68090EEA0245
:106D6000F3CFEAFFE902F3CFE9FFF450EA26600E21
:106D7000E926000EEA22EF5000D0E552E7CFD9FF16
:106D80001200D9CFE6FFE1CFD9FF040EE126DE6A7B
:106D9000DE6ADE6ADD6ADD52DD52D9CFE6FFDACF88
:106DA000E6FFE66A1A0EE66E5CEC22F0E552E5526A
:106DB000E552E552D9CFE9FFDACFEAFFEE2A000E1D
:106DC000EE22EE22EE22D9CFE9FFDACFEAFFEECFB4
:106DD000E6FFEECFE6FFEECFE6FFEFCFE6FFE66A97
:106DE0001A0EE66E05EC25F0146E060EE15E1450E8
:106DF000040EE15C03E200D0E16AE552E16EE55287
:106E0000E7CFD9FF1200D9CFE6FFE1CFD9FF040EBB
:106E1000E126DE6ADE6ADE6ADD6ADD52DD52D9CF46
:106E2000E6FFDACFE6FFE66A1A0EE66E5CEC22F0C9
:106E3000E552E552E552E552DECF06F0DECF07F02F
:106E4000DECF08F0DDCF09F0DD52DD52040EE15C4B
:106E500003E200D0E16AE552E16EE552E7CFD9FFE7
:106E60001200D9CFE6FFE1CFD9FFE652DF6ADF6A31
:106E7000FE0EDB50DF5C1BE20000000000000000A3
:106E80000000000000000000000000000000000002
:106E900000000000000000000000000000000000F2
:106EA00000000000000000000000DF2AE1D700D051
:106EB000E552E552E7CFD9FF1200D9CFE6FFE1CF87
:106EC000D9FF080EE126FD0EDBCF06F0FE0EDBCF6C
:106ED00007F0086A096A570E0B6E0C6A0D6A0E6A93
:106EE000B4EC50F002C0DEFF03C0DEFF04C0DEFFE2
:106EF00005C0DDFFDD52DD52040EDB6A050EDB6AE4
:106F0000060EDB6A070EDB6AD9CFE9FFDACFEAFFAC
:106F1000040EEECFDBFF050EEECFDBFF060EEECF4D
:106F2000DBFF070EEECFDBFF040EDBCF14F0050E08
:106F3000DBCF15F0060EDBCF16F0070EDBCF17F018
:106F400014501510161017100CE00400D950040F3F
:106F5000E96EDACFEAFFEE06000EEE5AEE5AEE5A6E
:106F6000E3D700D0080EE15C02E2E16AE552E16E8F
:086F7000E552E7CFD9FF120042
:086F7800D9CFE6FFE1CFD9FFFC
:106F8000020EE126ED0EDE6E010EDD6EDECFE6FFB7
:106F9000DDCFE6FFE66A0E0EE66E82EC21F0E552EA
:106FA000E552E552E552020EE15C03E200D0E16AEF
:106FB000E552E16EE552E7CFD9FF1200D9CFE6FFE7
:106FC000E1CFD9FF0D0EE126FB0EDBCFDEFFDBCFDD
:106FD000DDFF020EDB6A030EDB6A040EDB6A050EC0
:106FE000DB6A060EDB6A070EDB6A080EDB6A090E37
:106FF000DB6A0A0EDB6A0B0EDB6A0C0EDB6AFE0E26
:10700000DB5001E19DD0020A49E0030A03E0DE6A99
:10701000DD6A99D0020E086E096AEDC10DF0EEC16D
:107020000EF0D6EC47F0030E06C0DBFF040E07C0DF
:10703000DBFFEDC108F0EEC109F027EC47F007C017
:1070400014F008C015F009C016F00AC017F00C6A59
:107050000D6AC00E0E6E3F0E0F6E14C007F015C005
:1070600008F016C009F017C00AF03CEC47F0F4EC49
:1070700047F0050E08C0DBFF060E09C0DBFFEDC1BF
:1070800008F0EEC109F027EC47F0F4EC47F0070EEA
:1070900008C0DBFF080E09C0DBFF55D0030EEDC1B1
:1070A000DBFF040EEEC1DBFFEDC108F0EEC109F01D
:1070B00027EC47F007C014F008C015F009C016F01F
:1070C0000AC017F00C6A0D6A400E0E6E3F0E0F6E6E
:1070D00014C007F015C008F016C009F017C00AF078
:1070E0003CEC47F0F4EC47F0050E08C0DBFF060E61
:1070F00009C0DBFFEDC108F0EEC109F027EC47F055
:1071000007C014F008C015F009C016F00AC017F047
:107110000C6A0D6A0E6A3F0E0F6E14C007F015C0A0
:1071200008F016C009F017C00AF03CEC47F0F4EC88
:1071300047F0070E08C0DBFF080E09C0DBFF03D0D5
:10714000DE6ADD6A00D0DECF14F0DDCF15F0030E6D
:10715000DBCF16F0040EDBCF17F01450165C155081
:10716000175806E2800EF36E020EF3CFDBFF29D034
:10717000DECF14F0DDCF15F0050EDBCF16F0060ED6
:10718000DBCF17F01450165C1550175806E2400E6E
:10719000F36E020EF3CFDBFF14D0DECF14F0DDCFA1
:1071A00015F0070EDBCF16F0080EDBCF17F01450EA
:1071B000165C1550175805E2200EF36E020EF3CF41
:1071C000DBFFFD0EDB044DE1EDC108F0EEC109F07F
:1071D00027EC47F007C014F008C015F009C016F0FE
:1071E0000AC017F09A0E0C6E990E0D6E190E0E6EE7
:1071F0003F0E0F6E14C007F015C008F016C009F05E
:1072000017C00AF03CEC47F0F4EC47F0090E08C058
:10721000DBFF0A0E09C0DBFFFB0EDBCF14F0FC0E18
:10722000DBCF15F0090EDBCF16F00A0EDBCF17F01F
:107230001450165C1550175811E3F90EDBCF18F0F7
:10724000FA0EDBCF19F0090EDBCF1AF00A0EDBCFF6
:107250001BF018501A5C19501B5802E2020EDB8812
:107260003ED0FD0EDB5002083AE1EDC108F0EEC160
:1072700009F027EC47F007C014F008C015F009C06A
:1072800016F00AC017F0660E0C6E0D6EE60E0E6E4E
:107290003E0E0F6E14C007F015C008F016C009F0BE
:1072A00017C00AF03CEC47F0F4EC47F00B0E08C0B6
:1072B000DBFF0C0E09C0DBFFFB0EDBCF14F0FC0E76
:1072C000DBCF15F00B0EDBCF16F00C0EDBCF17F07B
:1072D0001450165C1550175802E2020EDB88020E9D
:1072E000DB50146E0D0EE15C03E200D0E16AE55262
:1072F000E16E1450E552E7CFD9FF1200D9CFE6FF77
:10730000E1CFD9FF040EE126DF6A010EDB6A020E2F
:10731000DB6A030EDB6AFE0EDB50F00B34E147EC58
:1073200045F0DF6EDF5017E10101F00514E1E66A78
:10733000C8EC3CF0E552E66AE66AE8EC35F0E55266
:10734000E5520101EF6BE66A0F0EE66E86EC31F056
:10735000E552E55217D0080EE66EA4EC36F0E55281
:10736000E76E030EE7CFDBFF146EDB50145C0AE11F
:107370000101010EF06FE66A080EE66EE8EC35F0EA
:10738000E552E55214D0E66AA4EC36F0E55201016C
:10739000EF6FEF510CE1010EE66EE66AE8EC35F0B6
:1073A000E552E552010EE66E25EC3DF0E552E66A47
:1073B000A4EC36F0E5520101EF6F030EEF5D48E1FA
:1073C000F06B080EE66EA4EC36F0E552E76E030EA5
:1073D000E7CFDBFFDBCF14F0000EE76E1418E8AE4A
:1073E00002D0143403D0E750D880145401E208D0FE
:1073F000010EE66E080EE66EE8EC35F0E552E55259
:1074000035D8E76E020EE7CFDBFFDB0405E176EC53
:107410003DF0DE52010EDD6E010EDB0419E1010EBE
:10742000E66E0F0EE66E86EC31F0E552E552020E86
:10743000E66EE66AE8EC35F0E552E552010EE66EDE
:10744000B6EC3CF0E552010EE66EC8EC3CF0E552BD
:10745000FE0EDBCFECF1040EE15C03E200D0E16A4A
:10746000E552E16EE552E7CFD9FF1200D9CFE6FF32
:10747000E1CFD9FF020EE126DF6A010EDB6AD9CF28
:10748000E6FFDACFE6FFE66A0C0EE66EBFEC20F010
:10749000E552E552E552E552DF500101EC1501E1FC
:1074A00003D0DE52010EDD6E010EDB50146E020EB3
:1074B000E15C03E200D0E16AE552E16E1450E5526E
:0E74C000E7CFD9FF12000101EC5100D01200FD
:0274CE000000BC
:1074D00080040101048004010208800401030C807F
:1074E000040204148004010518800401061C8004B1
:1074F0000107208004010824800401092880040178
:107500000A2C8001010B2D8001010C2E8001010D40
:107510002F8001010E308002010F328002011034F1
:107520008002011136800801120C800411135000F2
:1075300002011452000201155400020116800109D3
:1075400001178A41040118910101011993010101F8
:107550001A950104011B950102021CF00104011D92
:107560000002201000000000B71DC1046E3B82091C
:10757000D926430DDC7604136B6BC517B24D861A02
:107580000550471EB8ED08260FF0C922D6D68A2F1F
:1075900061CB4B2B649B0C35D386CD310AA08E3C3E
:1075A000BDBD4F3870DB114CC7C6D0481EE09345B7
:1075B000A9FD5241ACAD155F1BB0D45BC296975686
:1075C000758B5652C836196A7F2BD86EA60D9B63F1
:1075D00011105A6714401D79A35DDC7D7A7B9F7082
:1075E000CD665E74E0B6239857ABE29C8E8DA19178
:1075F000399060953CC0278B8BDDE68F52FBA582CE
:10760000E5E66486585B2BBEEF46EABA3660A9B75A
:10761000817D68B3842D2FAD3330EEA9EA16ADA479
:107620005D0B6CA0906D32D42770F3D0FE56B0DDA8
:10763000494B71D94C1B36C7FB06F7C32220B4CE89
:10764000953D75CA28803AF29F9DFBF646BBB8FB74
:10765000F1A679FFF4F63EE143EBFFE59ACDBCE8F5
:107660002DD07DEC77708634C06D4730194B043DCA
:10767000AE56C539AB0682271C1B4323C53D002EE1
:107680007220C12ACF9D8E1278804F16A1A60C1BA6
:1076900016BBCD1F13EB8A01A4F64B057DD008085D
:1076A000CACDC90C07AB9778B0B6567C69901571F6
:1076B000DE8DD475DBDD936B6CC0526FB5E6116265
:1076C00002FBD066BF469F5E085B5E5AD17D1D57A8
:1076D0006660DC5363309B4DD42D5A490D0B194421
:1076E000BA16D84097C6A5AC20DB64A8F9FD27A53B
:1076F0004EE0E6A14BB0A1BFFCAD60BB258B23B62D
:107700009296E2B22F2BAD8A98366C8E41102F8361
:10771000F60DEE87F35DA9994440689D9D662B9018
:107720002A7BEA94E71DB4E0500075E4892636E927
:107730003E3BF7ED3B6BB0F38C7671F7555032FA68
:10774000E24DF3FE5FF0BCC6E8ED7DC231CB3ECF2B
:1077500086D6FFCB8386B8D5349B79D1EDBD3ADC94
:107760005AA0FBD8EEE00C6959FDCD6D80DB8E6030
:1077700037C64F643296087A858BC97E5CAD8A73B2
:10778000EBB04B77560D044FE110C54B38368646AB
:107790008F2B47428A7B005C3D66C158E44082558E
:1077A000535D43519E3B1D252926DC21F0009F2C73
:1077B000471D5E28424D1936F550D8322C769B3F36
:1077C0009B6B5A3B26D6150391CBD40748ED970AFD
:1077D000FFF0560EFAA011104DBDD014949B9319D2
:1077E0002386521D0E562FF1B94BEEF5606DADF8A4
:1077F000D7706CFCD2202BE2653DEAE6BC1BA9EBFE
:107800000B0668EFB6BB27D701A6E6D3D880A5DE66
:107810006F9D64DA6ACD23C4DDD0E2C004F6A1CD49
:10782000B3EB60C97E8D3EBDC990FFB910B6BCB444
:10783000A7AB7DB0A2FB3AAE15E6FBAACCC0B8A7B9
:107840007BDD79A3C660369B717DF79FA85BB49200
:107850001F4675961A163288AD0BF38C742DB081C5
:10786000C330718599908A5D2E8D4B59F7AB0854C2
:1078700040B6C95045E68E4EF2FB4F4A2BDD0C4711
:107880009CC0CD43217D827B9660437F4F46007232
:10789000F85BC176FD0B86684A16476C933004612D
:1078A000242DC565E94B9B115E565A158770191832
:1078B000306DD81C353D9F0282205E065B061D0B95
:1078C000EC1BDC0F51A69337E6BB52333F9D113EB4
:1078D0008880D03A8DD097243ACD5620E3EB152DF1
:1078E00054F6D4297926A9C5CE3B68C1171D2BCCE7
:1078F000A000EAC8A550ADD6124D6CD2CB6B2FDFDD
:107900007C76EEDBC1CBA1E376D660E7AFF023EA6D
:1079100018EDE2EE1DBDA5F0AAA064F4738627F968
:10792000C49BE6FD09FDB889BEE0798D67C63A8043
:10793000D0DBFB84D58BBC9A62967D9EBBB03E9318
:107940000CADFF97B110B0AF060D71ABDF2B32A6B7
:107950006836F3A26D66B4BCDA7B75B8035D36B5E4
:04796000B440F7B187
:0C7964000101F25100D01200D9CFE6FF63
:10797000E1CFD9FFFE0EDB0404E10101010EF16F3E
:1079800002D00101F16B00D0E552E7CFD9FF120020
:10799000D9CFE6FFE1CFD9FFFE0EDB0404E1010100
:1079A000010EF26F02D00101F26B00D0E552E7CF79
:1079B000D9FF1200E66A49D8E552010EE66E130EB1
:1079C000E66E150EE66E040EE66E020EE66E49ECED
:1079D00049F0146E050EE15E1450E66A130EE66E71
:1079E000150EE66E400EE66E020EE66E49EC49F0AC
:1079F000146E050EE15E1450100E8A108A6EDF0EB2
:107A00008A148A6E010EE66E130EE66E150EE66E91
:107A1000020EE66EE66E49EC49F0146E050EE15E6C
:107A20001450FB0E8B148B6EE66A030EE66EE8ECC8
:107A300035F0E552E5520101F16B00D01200BADFDA
:107A4000E66AA6DFE55200D01200D9CFE6FFE1CF0B
:107A5000D9FFFE0EDB0421E1010EE66E130EE66E89
:107A6000150EE66E100EE66E020EE66E49EC49F05B
:107A7000146E050EE15E1450010EE66E130EE66EF6
:107A8000150EE66E080EE66E020EE66E49EC49F043
:107A9000146E050EE15E14501ED0E66A130EE66EFB
:107AA000150EE66E100EE66E020EE66E49EC49F01B
:107AB000146E050EE15E1450E66A130EE66E150EA6
