:020000040000FA
:0600000023EF0FF01200D7
:0600080004EF10F01200ED
:060018000CEF10F01200D5
:0400300040437104D4
:020034000000CA
:10004000D9CFE6FFE1CFD9FFE65225EC0DF090D8ED
:10005000A3EC0AF064EC0CF074EC0CF0DF6E04001E
:10006000DF040DE1800EE66EFC0EE66E010EE66E1C
:100070002AEC0CF0E552E552E55200EF10F0000ECC
:10008000E66EE66A000EE66EE66A020EE66E53EC77
:1000900006F0F56E050EE15EF550000916E104006C
:1000A000000EE66EE66A000EE66EE66A020EE66E88
:1000B00053EC06F0F56E050EE15EF550000905E122
:1000C000080EE66EDFEC00F0E5520400020E006E52
:1000D000DF50005C05E1040EE66EDFEC00F0E55257
:1000E000000EE66EE66A000EE66EE66A010EE66E49
:1000F00053EC06F0F56E050EE15EF55001080EE1D9
:10010000400EE66EFC0EE66E010EE66E2AEC0CF07A
:10011000E552E552E55200EF10F024D00400000E45
:10012000E66EE66A000EE66EE66A010EE66E53ECD7
:1001300006F0F56E050EE15EF55001080EE1200EA9
:10014000E66EFC0EE66E010EE66E2AEC0CF0E55251
:10015000E552E55200EF10F005D0020EE66EDFEC3E
:1001600000F0E55200D0E552E552E7CFD9FF12008A
:10017000806A816A826A836A846ABF0E926E0B0EFD
:10018000936EBB0E946E95680A0E966E0D0ECB6E36
:10019000CA6ACC6A070EBE6EBD6ACA840C0EBD1256
:0401A00000D0120079
:0C01A400020034000000F4000000020023
:0E01B00000005C1E0000B700000030000000E0
:0201BE00D9CF97
:1001C000E6FFE1CFD9FF0001606B0001616BFE0E1D
:1001D000DBCFE6FFFC0EE66E010EE66E2AEC0CF0BD
:1001E000E552E552E552000902E1FF0000D0EEECD5
:1001F0000CF026EC0EF060C002F0036A02BE036849
:10020000030ED89002360336E806FBE1B70E02264D
:10021000000E032261C004F0056A04BE0568D89090
:100220000436053602500424E96E03500520EA6EB8
:10023000EECF00F0EFCF01F004D001C0FAFF005084
:10024000F96EFBDFD8D700D0E552E7CFD9FF120017
:100250000001605107E160AE03D00001010E606F44
:100260000400F6D700D01200D9CFE6FFE1CFD9FFC6
:10027000030EE126010EDB6A620EE66E000EE66EEC
:10028000CEEC0AF0E552E552E76E020EE7CFDBFF57
:10029000D950010FE66E000EDA20E66E930EE66E80
:1002A000010EE66EF4EC0BF0E552E552E552E55234
:1002B000000902E1FF0000D0010EDB500F0BE76EDA
:1002C000010EE7CFDBFF0F0E00016315006E010E7C
:1002D000DB50005C0CE1020EDB0406E1080E0001BD
:1002E000645D02E1DF6A02D0010EDF6E02D0020E11
:1002F000DF6EDF5000D0F56E030EE15C02E2E16AD2
:10030000E552E16EF550E552E7CFD9FF1200D9CFA3
:10031000E6FFE1CFD9FFE6520001010E616FB36B3A
:10032000B46BB56BB66BA0DFDF6EDF501DE1FF0E67
:100330000001655D03E1050E606F15D00F0E6515B8
:10034000726F700E6515716F71390F0B716F68C028
:10035000B3F067C0B4F066C0B5F0B66B65BF02D04D
:1003600017D801D0E6D80ED0DF0406E10001040E54
:10037000606F150E656F06D0020EDF5C03E10001B1
:10038000606B616B00D0E552E552E7CFD9FF1200F8
:10039000D9CFE6FFE1CFD9FF060EE126040EDB6AD6
:1003A000050EDB6A0001020E606F010EF36E030E94
:1003B000F3CFDBFF010EDB6A020EDB6A715103082B
:1003C00001E2A1D0020E725D3DE1D950040FE96E49
:1003D000DACFEAFF690EEE6E000EED6EDF6A715144
:1003E000D880DF542EE3D880FF0EB355FF0EB455EE
:1003F000000EB555000EB6551EE3B3C0E6FFB4C0FF
:10040000E6FF3EEC06F0E552E552E66E040EDBCF69
:10041000E9FF050EDBCFEAFFE552E750EF6E000182
:10042000B32B000EB423B523B623040EDB2A050E2E
:1004300001E3DB2A04D0030EDB6A7129DF6EDF2AB9
:10044000CED71AD072510AE1D950010FE96EDACF36
:10045000EAFF840EEE6E1B0EED6E0ED072050AE101
:10046000D950010FE96EDACFEAFFE80EEE6E170EF3
:10047000ED6E02D0030EDB6AD950010FE96EDACFC0
:10048000EAFFEE50ED103EE0D950040FE96EDACFEE
:10049000EAFF690EEE6E000EED6EDF6A000171512B
:1004A000D880DF542FE3030EDB042AE1010EDBCFFB
:1004B00000F0020EDBCF01F0040EDBCFE6FF050EED
:1004C000DBCFE6FFB3C0E6FFB4C0E6FF04D001C057
:1004D000FAFF0050F96EFBDFE552E552E552E552B6
:1004E00001080CE10001B32B000EB423B523B623A1
:1004F000040EDB2A050E01E3DB2A02D0030EDB6AC1
:10050000DF2ACCD702D0030EDB6A030EDB5004E1F6
:10051000040E606F150E656FF56E060EE15C03E26A
:1005200000D0E16AE552E16EF550E552E7CFD9FF20
:100530001200D9CFE6FFE1CFD9FF060EE126040E67
:10054000DB6A050EDB6A020EDB6A030EDB6ADE5233
:10055000010EDD6E0001030E606F060E656F7151B6
:10056000030862E372510AE1D950020FE96EDACF53
:10057000EAFFDC0EEE6E1B0EED6E0ED072050AE188
:10058000D950020FE96EDACFEAFF540EEE6E180E64
:10059000ED6E02D0010EDB6AD950020FE96EDACFA0
:1005A000EAFFEE50ED103FE0D950040FE96EDACFCC
:1005B000EAFF690EEE6E000EED6EDF6A000171510A
:1005C000D880DF5430E3010EDB042BE1020EDBCFD9
:1005D00000F0030EDBCF01F0040EDBCFE9FF050EC8
:1005E000DBCFEAFFEF50E66EB3C0E6FFB4C0E6FF34
:1005F00004D001C0FAFF0050F96EFBDFE552E5526E
:10060000E55200090CE00001B32B000EB423B52322
:10061000B623040EDB2A050E01E3DB2A02D0010E0D
:10062000DB6ADF2ACBD70DD0050E715D08E1020E23
:10063000725D02E11BD802D0010EDB6A02D0010E0E
:10064000DB6A010EDB5005E10001040E606F150E40
:10065000656FF56E060EE15C03E200D0E16AE552DB
:10066000E16EF550E552E7CFD9FF1200D9CFE6FF92
:10067000E1CFD9FFE652020E0001725D2EE1B3C058
:10068000E6FFB4C0E6FFB5C0E6FFB6C0E6FF57EC34
:1006900005F0E552E552E552E552010819E1DF6A3D
:1006A000040EDF5C14E2040EDF24EA6A650FE96ED3
:1006B000000EEA22EF50E66EDF50EA6A6D0FE96E37
:1006C000000EEA22E552E750EF6EDF2AE9D705D0A7
:1006D0000001040E606F150E656F60D900D0E55201
:1006E000E552E7CFD9FF1200D9CFE6FFE1CFD9FF1E
:1006F000050EE126020EDB6ADF6A010EF36E040EC0
:10070000F3CFDBFF320EE66EE66AB8EC0EF0E55290
:10071000E552080EDF5C48E2040EDB0445E198EC8C
:100720000EF0000908E16050800B05E10F01505107
:10073000800B01E1F4D798EC0EF0010803E1040E00
:10074000DB6A31D091DDE76E030EE7CFDBFFDB50D4
:1007500024E1010EDB6A080EF36E010EDBCFF4FF1D
:10076000F350F45C18E2010EDB50EA6A650FE96EA3
:10077000000EEA22EF50E66E020EDB50EA6A730FBB
:10078000E96E000EEA22E552E750EF6E020EDB2A18
:10079000010EDB2AE0D7DF2A06D0030EDB0403E1DB
:1007A000040EDB6A00D0B5D7CFEC0EF0040EDB50A0
:1007B000F56E050EE15C03E200D0E16AE552E16E00
:1007C000F550E552E7CFD9FF1200D9CFE6FFE1CFD0
:1007D000D9FF070EE126030EDB6A040EDB6A050E65
:1007E000DB6A060EDB6A0001020E616FDE52010E4B
:1007F000DD6E7ADF010855E10001030E606F060E21
:10080000656F6D0EE66E000EE66E730EE66E000E00
:10081000E66EE66A53EC06F0F56E050EE15EF55005
:1008200001083CE1D950050FE96EDACFEAFF730EFB
:10083000EE6E000EED6EDF6A080EDF5C2EE2010E3A
:10084000DB0429E1050EDBCFE6FF060EDBCFE6FF7A
:10085000B3C0E6FFB4C0E6FFB5C0E6FFB6C0E6FF32
:10086000C6EC05F0F56E060EE15EF550010803E0FA
:10087000010EDB6A10D0080E0001B327000EB4236E
:10088000B523B623D950050FE96EDACFEAFF080E7B
:10089000EE26000EED22DF2ACFD702D0010EDB6A52
:1008A00002D0010EDB6A010EDB5005E10001040EEF
:1008B000606F150E656F010EF36E020EF3CFDBFF56
:1008C000DB5007080BE3020EDB50EA6A650FE96EA6
:1008D000000EEA22EF6A020EDB2AF2D7D950030F8C
:1008E000E66E000EDA20E66E930EE66E010EE66E00
:1008F000F4EC0BF0E552E552E552E55201082FE128
:10090000030EDB500F0BE76E030EE7CFDBFFDBCFF1
:1009100000F0040EDBCF01F0F00E0012070E011202
:10092000030E00C0DBFF040E01C0DBFF030EDBCFB4
:1009300000F0040EDBCF01F0050ED8900036013632
:10094000E804FBE1030E00C0DBFF040E01C0DBFF87
:10095000030EDBCF62F0040EDBCF63F004D00001A6
:10096000E00E626F6369620EE66E000EE66E80EC6A
:100970000BF0E552E552010801E0F5D70001616B8B
:10098000606BF56E070EE15C03E200D0E16AE552B0
:10099000E16EF550E552E7CFD9FF1200D9CFE6FF5F
:1009A000E1CFD9FF030EE126010EDB6A020EDB6AFE
:1009B0000001605D0FE0010EDF6EDF50070809E304
:1009C000DF50EA6A650FE96E000EEA22EF6ADF2A5D
:1009D000F4D700D0D950010FE66E000EDA20E66E93
:1009E000930EE66E010EE66EF4EC0BF0E552E55266
:1009F000E552E55201082FE1010EDB500F0BE76EC7
:100A0000010EE7CFDBFFDBCF00F0020EDBCF01F002
:100A1000F00E0012070E0112010E00C0DBFF020EE5
:100A200001C0DBFF010EDBCF00F0020EDBCF01F0D7
:100A3000050ED89000360136E804FBE1010E00C037
:100A4000DBFF020E01C0DBFF010EDBCF62F0020E06
:100A5000DBCF63F004D00001E00E626F6369620EC9
:100A6000E66E000EE66E80EC0BF0E552E5520108F2
:100A700001E0F5D7030E0001605D07E1020E725D33
:100A800004E1610502E1A1DE02D0616B606BF56EED
:100A9000030EE15C03E200D0E16AE552E16EF5503D
:0E0AA000E552E7CFD9FF1200FF0000D0120090
:020AAE00D9CF9E
:100AB000E6FFE1CFD9FF030EE126DF6AFB0EDBCFB5
:100AC00010F0FC0EDBCF11F0DE5210C0DEFF11C0C3
:100AD000DDFFDD52FB0EDBCF00F0FC0EDBCF01F0C3
:100AE000FD0EDBCF02F0FE0EDBCF03F0100ED89030
:100AF0000332023201320032E806F9E100500110FF
:100B000037E1010EDBCF00F0020EDBCF01F0000E6B
:100B1000005C200E01582CE3010EDB503F0B28E156
:100B2000F86A010EDBCF00F0020EDBCF01F001C04E
:100B300000F0016A0050F76EFF0EE76E010EDBCF8A
:100B400000F0020EDBCF01F0E7500016016A005002
:100B5000F66EA68EA69CA684A688F29E550EA76E5B
:100B6000AA0EA76EA6820000A6B802D0010EDF6E04
:100B7000DF5000D0F56E030EE15C02E2E16AE5525F
:100B8000E16EF550E552E7CFD9FF1200D9CFE6FF6D
:100B9000E1CFD9FF060EE126010EDB6AFB0EDBCFAB
:100BA00010F0FC0EDBCF11F0040E10C0DBFF050EC1
:100BB00011C0DBFFFB0EDBCF00F0FC0EDBCF01F042
:100BC000FD0EDBCF02F0FE0EDBCF03F0100ED8904F
:100BD0000332023201320032E806F9E1005001101E
:100BE0003EE1040EDBCF10F0050EDBCF11F0020E5C
:100BF00010C0DBFF030E11C0DBFFDF6A080EDF5CF5
:100C00001FE2DF50E76EF90EDBCFE9FFFA0EDBCF14
:100C1000EAFFE750E926000EEA22EFCF00F0DF50AE
:100C2000E76E020EDBCFF6FF030EDBCFF7FFE750D8
:100C3000F626000EF72200C0F5FF0C00DF2ADED7F3
:100C4000A68EA69CA684F29E550EA76EAA0EA76E2F
:100C5000A6820000A6B603D0DE52010EDD6E010EA4
:100C6000DB5000D0F56E060EE15C02E2E16AE5526F
:100C7000E16EF550E552E7CFD9FF1200D9CFE6FF7C
:100C8000E1CFD9FFE652FD0EDBCFF6FFFE0EDBCF44
:100C9000F7FF0800F550DF6EDF5000D0E552E55257
:100CA000E7CFD9FF1200D9CFE6FFE1CFD9FF140E6D
:100CB000E126070EDB6AD950080FE96EDACFEAFFAA
:100CC000EE6AEE6AEE6AEE6A0C0EDB6A0D0EDB6A05
:100CD0000E0EDB6A0F0EDB6A100EDB6A110EDB6A8A
:100CE000120EDB6A130EDB6ADF6A080EDB68090E80
:100CF000DB680A0EDB680B0EDB68070EDB6AFE0E94
:100D0000DB5001E096D0FC0EDBCF10F0FD0EDBCF08
:100D100011F00C0E10C0DBFF0D0E11C0DBFF030E37
:100D2000DB6A040EDB6A030EDBCF00F0040EDBCFC0
:100D300001F0400E005C000E015845E2070EDBCFCB
:100D400004F0080EDBCF05F0090EDBCF06F00A0E2B
:100D5000DBCF07F00B0EDBCFE6FF0C0EDBCFE9FF9E
:100D60000D0EDBCFEAFFEF50E552E718040DF3CF8D
:100D7000F6FFF4CFF7FF460EF626110EF722090014
:100D8000F5500418006E0900F5500518016E0900B1
:100D9000F5500618026E0900F5500718036E080E8C
:100DA00000C0DBFF090E01C0DBFF0A0E02C0DBFF43
:100DB0000B0E03C0DBFF0C0EDB2A030EDB2A040E36
:100DC00001E3DB2AB0D7030EDB6A040EDB6A030EF5
:100DD000DBCF00F0040EDBCF01F0040E005C000E50
:100DE000015826E2030EDBCF02F0040EDBCF03F046
:100DF000FA0EDB500224E96EFB0EDB500320EA6E94
:100E0000EF50E66ED950100F006EDACF01F0030EEE
:100E1000DB500024E96E040EDB500120EA6EE5523F
:100E2000E750EF6E030EDB2A040E01E3DB2ACFD777
:100E3000E7D0FE0EDB0416E10E0EDB6A200EF36E29
:100E40000F0EF3CFDBFF050EDB6AD00EF36E060E3E
:100E5000F3CFDBFF040EF36E010EF3CFDBFF020EC8
:100E6000DB6A18D0400EF36E0E0EF3CFDBFF0F0ED1
:100E7000DB6AC00EF36E050EF3CFDBFF1F0EF36EC1
:100E8000060EF3CFDBFF080EF36E010EF3CFDBFF90
:100E9000020EDB6A030EDB6A040EDB6A030EDBCF95
:100EA00000F0040EDBCF01F0050EDBCF02F0060EE2
:100EB000DBCF03F00250005C035001584DE2040008
:100EC000070EDBCF06F0080EDBCF07F0090EDBCFF5
:100ED00008F00A0EDBCF09F00B0EDBCFE6FF030EA6
:100EE000DBCF04F0040EDBCF05F00E0EDB50042444
:100EF000F66E0F0EDB500520F76E0800F550E55238
:100F0000E718040DF3CFF6FFF4CFF7FF460EF626F1
:100F1000110EF7220900F5500618006E0900F55071
:100F20000718016E0900F5500818026E0900F55007
:100F30000918036E080E00C0DBFF090E01C0DBFFBD
:100F40000A0E02C0DBFF0B0E03C0DBFF030EDB2A21
:100F5000040E01E3DB2AA2D7006801680268036877
:100F6000D950080FE96EDACFEAFFEE50001AEE50C2
:100F7000011AEE50021AEE50031A080E00C0DBFFF1
:100F8000090E01C0DBFF0A0E02C0DBFF0B0E03C01F
:100F9000DBFF030EDB6A040EDB6A030EDBCF00F01F
:100FA000040EDBCF01F0040E005C000E015828E2B5
:100FB000D950100F026EDACF03F0030EDB5002247B
:100FC000006E040EDB500320016E00C0E6FF01C07E
:100FD000E6FF010EDBCFE6FF020EDBCFE6FFF4EC0F
:100FE0000BF0E552E552E552E552010EDB2A020E06
:100FF00001E3DB2A030EDB2A040E01E3DB2ACDD753
:10100000100EDBCF00F0110EDBCF01F0120EDBCFA4
:1010100002F0130EDBCF03F0D950080FE96EDACFE0
:10102000EAFF0050EE1809E10150EE1806E1025007
:10103000EE1803E10350EE1800E102E1010EDF6E4D
:10104000FE0EDB50020837E1030EDB6A040EDB6A9A
:10105000030EDBCF00F0040EDBCF01F0040E005CCA
:10106000000E015828E2D950080F006EDACF01F0C7
:10107000030EDB500024E96E040EDB500120EA6E03
:10108000EF50E66E030EDBCF02F0040EDBCF03F071
:10109000F80E0226010E032202C0E6FF03C0E6FF9F
:1010A0002AEC0CF0E552E552E552030EDB2A040E61
:1010B00001E3DB2ACDD7FE0EDB0437E1030EDB6A4A
:1010C000040EDB6A030EDBCF00F0040EDBCF01F071
:1010D000040E005C000E015828E2D950080F006E83
:1010E000DACF01F0030EDB500024E96E040EDB5072
:1010F0000120EA6EEF50E66E030EDBCF02F0040E25
:10110000DBCF03F0F40E0226010E032202C0E6FF3D
:1011100003C0E6FF2AEC0CF0E552E552E552030E5F
:10112000DB2A040E01E3DB2ACDD7DF5000D0F56EB9
:10113000140EE15C02E2E16AE552E16EF550E5521F
:06114000E7CFD9FF120009
:0A11460000000000B71DC1046E3B5D
:101150008209D926430DDC7604136B6BC517B24D9B
:10116000861A0550471EB8ED08260FF0C922D6D6BC
:101170008A2F61CB4B2B649B0C35D386CD310AA0D3
:101180008E3CBDBD4F3870DB114CC7C6D0481EE049
:101190009345A9FD5241ACAD155F1BB0D45BC2961F
:1011A0009756758B5652C836196A7F2BD86EA60D86
:1011B0009B6311105A6714401D79A35DDC7D7A7B17
:1011C0009F70CD665E74E0B6239857ABE29C8E8D1F
:1011D000A191399060953CC0278B8BDDE68F52FB47
:1011E000A582E5E66486585B2BBEEF46EABA366018
:1011F000A9B7817D68B3842D2FAD3330EEA9EA16EF
:10120000ADA45D0B6CA0906D32D42770F3D0FE5668
:10121000B0DD494B71D94C1B36C7FB06F7C3222002
:10122000B4CE953D75CA28803AF29F9DFBF646BB29
:10123000B8FBF1A679FFF4F63EE143EBFFE59ACD6A
:10124000BCE82DD07DEC77708634C06D4730194BEB
:10125000043DAE56C539AB0682271C1B4323C53D52
:10126000002E7220C12ACF9D8E1278804F16A1A623
:101270000C1B16BBCD1F13EB8A01A4F64B057DD0CA
:101280000808CACDC90C07AB9778B0B6567C6990F0
:101290001571DE8DD475DBDD936B6CC0526FB5E6D6
:1012A000116202FBD066BF469F5E085B5E5AD17D2D
:1012B0001D576660DC5363309B4DD42D5A490D0B8E
:1012C0001944BA16D84097C6A5AC20DB64A8F9FD2E
:1012D00027A54EE0E6A14BB0A1BFFCAD60BB258BBE
:1012E00023B69296E2B22F2BAD8A98366C8E4110BF
:1012F0002F83F60DEE87F35DA9994440689D9D66A6
:101300002B902A7BEA94E71DB4E0500075E489260F
:1013100036E93E3BF7ED3B6BB0F38C7671F75550F9
:1013200032FAE24DF3FE5FF0BCC6E8ED7DC231CB90
:101330003ECF86D6FFCB8386B8D5349B79D1EDBD21
:101340003ADC5AA0FBD8EEE00C6959FDCD6D80DB8C
:101350008E6037C64F643296087A858BC97E5CAD45
:101360008A73EBB04B77560D044FE110C54B3836FE
:1013700086468F2B47428A7B005C3D66C158E4401D
:101380008255535D43519E3B1D252926DC21F000EB
:101390009F2C471D5E28424D1936F550D8322C76C9
:1013A0009B3F9B6B5A3B26D6150391CBD40748ED48
:1013B000970AFFF0560EFAA011104DBDD014949B61
:1013C00093192386521D0E562FF1B94BEEF5606D21
:1013D000ADF8D7706CFCD2202BE2653DEAE6BC1B71
:1013E000A9EB0B0668EFB6BB27D701A6E6D3D880DA
:1013F000A5DE6F9D64DA6ACD23C4DDD0E2C004F6B9
:10140000A1CDB3EB60C97E8D3EBDC990FFB910B6CA
:10141000BCB4A7AB7DB0A2FB3AAE15E6FBAACCC02C
:10142000B8A77BDD79A3C660369B717DF79FA85B6B
:10143000B4921F4675961A163288AD0BF38C742D34
:10144000B081C330718599908A5D2E8D4B59F7AB71
:10145000085440B6C95045E68E4EF2FB4F4A2BDD8C
:101460000C479CC0CD43217D827B9660437F4F46D5
:101470000072F85BC176FD0B86684A16476C9330A4
:101480000461242DC565E94B9B115E565A15877082
:101490001918306DD81C353D9F0282205E065B0610
:1014A0001D0BEC1BDC0F51A69337E6BB52333F9D5F
:1014B000113E8880D03A8DD097243ACD5620E3EB68
:1014C000152D54F6D4297926A9C5CE3B68C1171D20
:1014D0002BCCA000EAC8A550ADD6124D6CD2CB6B78
:1014E0002FDF7C76EEDBC1CBA1E376D660E7AFF0F1
:1014F00023EA18EDE2EE1DBDA5F0AAA064F4738600
:1015000027F9C49BE6FD09FDB889BEE0798D67C661
:101510003A80D0DBFB84D58BBC9A62967D9EBBB0B3
:101520003E930CADFF97B110B0AF060D71ABDF2B42
:1015300032A66836F3A26D66B4BCDA7B75B8035D7B
:0615400036B5B440F7B11E
:0A154600D9CFE6FFE1CFD9FFE6524E
:101550006F8E6EAEFED7779E779C010EDF6EC00E4B
:10156000DF10706EF40E716E060E726E0F01FE0EBD
:10157000186F196BF60E006F016B609C608A200E6D
:10158000736E6F9A6F9C6F9EE00E6E1401E0FCD735
:1015900000D0E552E552E7CFD9FF1200D9CFE6FFE0
:1015A000E1CFD9FF070EE126050EDB6A060EDB6AE6
:1015B000DF6A60BE03D0040EDB6A05D0010EF36E55
:1015C000040EF3CFDBFFDB0401E08CD00F0E6514BB
:1015D000E66EFD0EDBCFE9FFFE0EDBCFEAFF020E6B
:1015E000E926000EEA22E552E750EF6EFD0EDBCF52
:1015F000E9FFFE0EDBCFEAFF020EE926000EEA222B
:10160000EF5008086EE1010EDF6ED950020FE96E4F
:10161000DACFEAFF660EEE6E0F0EED6E010EDB6A9C
:10162000080EF36E010EDBCFF4FFF350F45C2BE2F7
:10163000010EDB50E76E020EDBCFE9FF030EDBCFBE
:10164000EAFFE750E926000EEA22EF50E66EFD0EB3
:10165000DBCFE9FFFE0EDBCFEAFF030EE926000E2B
:10166000EA22E9CF00F0EACF01F0010EDB500F01D2
:101670000024E96E000E0120EA6EE552E750EF6E9D
:10168000010EDB2ACDD7050E62CFDBFF060E61CF40
:10169000DBFF050EDBCF00F0060EDBCF01F0050E01
:1016A000D89001320032E804FBE1050E00C0DBFFF8
:1016B000060E01C0DBFFFD0EDBCFE9FFFE0EDBCF28
:1016C000EAFF060EDBCFEFFFFD0EDBCFE9FFFE0EDC
:1016D000DBCFEAFF010EE926000EEA22050EDBCF82
:1016E000EFFF609EDF50F56E070EE15C03E200D075
:1016F000E16AE552E16EF550E552E7CFD9FF1200FD
:10170000D9CFE6FFE1CFD9FF040EE126010EDB6A57
:10171000D950020FE96EDACFEAFF460EEE6E0F0ED9
:10172000ED6EDF6A080EDF5C28E2FD0EDBCFE9FF1D
:10173000FE0EDBCFEAFF030EE926000EEA22E9CF18
:1017400000F0EACF01F0DF500F010024E96E000E37
:101750000120EA6EEF50E66EDF50E76E020EDBCF3F
:10176000E9FF030EDBCFEAFFE750E926000EEA228D
:10177000E552E750EF6EDF2AD5D7FD0EDBCFE9FF4C
:10178000FE0EDBCFEAFFEFCF42FFFD0EDBCFE9FF1E
:10179000FE0EDBCFEAFF010EE926000EEA22EFCFB4
:1017A00041FF0F01080E456F40874051080B04E0D0
:1017B0004051100B01E1F9D740A904D0010EDB6ABA
:1017C000409703D0DE52010EDD6E609EDB50F56E59
:1017D000040EE15C03E200D0E16AE552E16EF550EF
:0817E000E552E7CFD9FF12002A
:0817E800D9CFE6FFE1CFD9FFE4
:1017F000E652DF6AD950FD0FE96EFF0EDA20EA6E7D
:10180000FF0ED880EE54030EED541CE3FD0EDBCF2B
:1018100000F0FE0EDBCF01F001C000F0016A0050C5
:10182000AA6EFD0EDB50A96EA69EA69CA680FB0E9E
:10183000DBCFE9FFFC0EDBCFEAFFA8CFEFFF010E05
:10184000DF6E01D0DF6ADF5000D0E552E552E7CF0E
:10185000D9FF1200D9CFE6FFE1CFD9FFE652D95028
:10186000FD0FE96EFF0EDA20EA6EFF0ED880EE540F
:10187000030EED5421E3FD0EDBCF00F0FE0EDBCFB7
:1018800001F001C000F0016A0050AA6EFD0EDB50AD
:10189000A96EFC0EDB50A86EA69EA69CA684F29EA6
:1018A000550EA76EAA0EA76EA682A1A8FED7A19874
:1018B000A694010EDF6E01D0DF6ADF5000D0E55242
:1018C000E552E7CFD9FF1200D050E66E910EE66EDA
:1018D000010EE66EBFDFE552E552E552000902E176
:1018E000FF0000D000D01200D9CFE6FFE1CFD9FF32
:1018F000080EE126DF6A040EDB6A050EDB6A060EBF
:10190000DB6A070EDB6A8A0EF36E010EF3CFDBFF94
:10191000F36E020EF3CFDBFF030EF36EF3CFDBFFAC
:10192000DB50000826E2D950040F026EDACF03F034
:10193000030EDB0400010224006E000E0320016E82
:1019400000C0E6FF01C0E6FF010EDBCFE6FF020E9E
:10195000DBCFE6FF49DFE552E552E552E5520108EB
:1019600005E1010EDB2A020E01E3DB2A030EDB0692
:10197000D7D7D950040FE96EDACFEAFF540EEE182C
:1019800007E1440EEE1804E1570EEE1801E1EE50A7
:1019900003E1010EDF6E14D0D950040FE96EDACFE7
:1019A000EAFF520EEE1807E14B0EEE1804E1440E6A
:1019B000EE1801E1EE5003E1020EDF6E01D0DF6AA6
:1019C000DF50F56E080EE15C03E200D0E16AE552FB
:1019D000E16EF550E552E7CFD9FF1200D9CFE6FF0F
:1019E000E1CFD9FF030EE1268A0EF36E010EF3CF8D
:1019F000DBFF010EF36E020EF3CFDBFFDF6A030E97
:101A0000DF5C16E2E668010EDBCFE6FF020EDBCFFD
:101A1000E6FF20DFE552E552E552000902E1FF0052
:101A200000D0010EDB2A020E01E3DB2ADF2AE7D712
:101A300000D0F56E030EE15C02E2E16AE552E16E70
:0A1A4000F550E552E7CFD9FF120080
:061A4A00D9CFE6FFE1CF59
:101A5000D9FF050EE126DF6A010EDB6A020EDB6AA2
:101A6000030EDB6A040EDB6AD9CF00F0DACF01F097
:101A7000030E00C0DBFF040E01C0DBFF010EDB6ABA
:101A8000020EDB6AD950010FE96EDACFEAFFFF0ED2
:101A9000D880EE540C0EED5468E3010EDBCF00F05D
:101AA000020EDBCF01F0030EDB50001803E1040E41
:101AB000DB5001180AE1D950010FE96EDACFEAFFD5
:101AC000040EEE26000EED224AD0010EDBCFE9FF18
:101AD000020EDBCFEAFFEFCFDFFF010EDBCFE9FF26
:101AE000020EDBCFEAFF550EEF6E010EDBCFE9FFF2
:101AF000020EDBCFEAFFEF50550801E0FF00010EB8
:101B0000DBCFE9FF020EDBCFEAFFAA0EEF6E010E7C
:101B1000DBCFE9FF020EDBCFEAFFEF50AA0801E0BE
:101B2000FF00010EDBCFE9FF020EDBCFEAFF010E63
:101B3000DBCFEFFF010EDBCFE9FF020EDBCFEAFFC9
:101B4000EFCF00F0010EDB50005C01E0FF00010E62
:101B5000DBCFE9FF020EDBCFEAFFDFCFEFFF010EA5
:101B6000DB2A020E01E3DB2A8DD700D0F56E050ECD
:101B7000E15C02E2E16AE552E16EF550E552E7CF41
:101B8000D9FF1200D9CFE6FFE1CFD9FFE652DF6AD5
:101B9000D950FD0FE96EFF0EDA20EA6EFF0ED880F5
:101BA000EE540F0EED5413E3FD0EDBCFE9FFFE0EF6
:101BB000DBCFEAFFEF50E66EFB0EDBCFE9FFFC0E5A
:101BC000DBCFEAFFE552E750EF6E010EDF6EDF502C
:101BD00000D0E552E552E7CFD9FF1200D9CFE6FF9A
:101BE000E1CFD9FF030EE126DF6AFD0EDBCF10F057
:101BF000FE0EDBCF11F0DE5210C0DEFF11C0DDFFA4
:101C0000DD52D950FD0FE96EFF0EDA20EA6EFF0EAD
:101C1000D880EE540C0EED540BE3010EDBCFE9FF40
:101C2000020EDBCFEAFFFC0EDBCFEFFF010EDF6E13
:101C3000DF50F56E030EE15C03E200D0E16AE5528D
:0C1C4000E16EF550E552E7CFD9FF12002D
:041C4C00D9CFE6FF07
:101C5000E1CFD9FF050EE126010EDB6A020EDB6A39
:101C6000030EDB6A040EDB6A0001F16BF26BD56ACE
:101C7000DF6A900EF36E010EF3CFDBFFD00EF36E32
:101C8000020EF3CFDBFF030EF36EF3CFDBFF040E88
:101C9000DB6AD950010FE96EDACFEAFFD880FF0E78
:101CA000EE54FF0EEE54000EEE54000EEE540FE212
:101CB000DF2AD950010FE96EDACFEAFFD890030E80
:101CC000EB32020EEB32010EEB32EF32E2D7DF5095
:101CD00004E0D596DF04D51201D0D586D950010F86
:101CE000E96EDACFEAFFEE1EEE1E010E006E016A0B
:101CF000026A036AD950010FE96EDACFEAFFEE50AB
:101D00000026EE500122EE500222EE50032200C0C7
:101D1000F4F001C0F5F0F56E050EE15C03E200D0D1
:101D2000E16AE552E16EF550E552E7CFD9FF1200C6
:101D3000D9CFE6FFE1CFD9FFE652DF6A0001F30514
:101D40000AE1F2A408D0F294F5C0D7FFF4C0D6FFA0
:101D5000F107000EF25BF151F21103E1010EDF6EAB
:101D60001ED8DF5000D0E552E552E7CFD9FF120070
:101D7000D9CFE6FFE1CFD9FF0001010EF36FFD0ED1
:101D8000DBCFF1F0FE0EDBCFF2F0F5C0D7FFF4C0F1
:101D9000D6FFD58E00D0E552E7CFD9FF1200000163
:081DA000F36BD59E00D0120088
:081DA800A40EF66E010EF76EA9
:101DB000000EF86E00010900F550EC6F0900F550B7
:101DC000ED6F03E1EC6701D03DD00900F550E76FFE
:101DD0000900F550E86F0900F550E96F09000900A6
:101DE000F550E96E0900F550EA6E09000900090096
:101DF000F550EA6F0900F550EB6F09000900F6CFC6
:101E0000EEF0F7CFEFF0F8CFF0F0E7C0F6FFE8C064
:101E1000F7FFE9C0F8FF0001EA5302E1EB5307E0E6
:101E20000900F550EE6EEA07F8E2EB07F9D7EEC0CD
:101E3000F6FFEFC0F7FFF0C0F8FF0001EC07000E5F
:061E4000ED5BBFD71200AC
:0A1E46001CEE00F02CEE00F0F86A2C
:0C1E5000D4EC0EF020EC00F0FDD71200E6
:041E5C005002000030
:101E6000000000000E030000CA07000000009C09EB
:101E70000000000000006C069C09000000009C09A6
:0C1E80009C0900000000A80A00000000FF
:020000040030CA
:0100010002FC
:010002001DE0
:010003000DEF
:010006008178
:00000001FF
